{
  "_format": "hh-sol-artifact-1",
  "contractName": "Lottery",
  "sourceName": "contracts/Lottery.sol",
  "abi": [
    {
      "inputs": [
        {
          "internalType": "contract IERC20",
          "name": "mockTokenAddress",
          "type": "address"
        }
      ],
      "stateMutability": "nonpayable",
      "type": "constructor"
    },
    {
      "anonymous": false,
      "inputs": [
        {
          "indexed": false,
          "internalType": "address",
          "name": "",
          "type": "address"
        },
        {
          "indexed": false,
          "internalType": "uint256",
          "name": "",
          "type": "uint256"
        }
      ],
      "name": "Incoming",
      "type": "event"
    },
    {
      "anonymous": false,
      "inputs": [
        {
          "indexed": false,
          "internalType": "address",
          "name": "",
          "type": "address"
        },
        {
          "indexed": false,
          "internalType": "uint256",
          "name": "",
          "type": "uint256"
        }
      ],
      "name": "Outgoing",
      "type": "event"
    },
    {
      "anonymous": false,
      "inputs": [
        {
          "indexed": true,
          "internalType": "address",
          "name": "previousOwner",
          "type": "address"
        },
        {
          "indexed": true,
          "internalType": "address",
          "name": "newOwner",
          "type": "address"
        }
      ],
      "name": "OwnershipTransferred",
      "type": "event"
    },
    {
      "anonymous": false,
      "inputs": [
        {
          "indexed": true,
          "internalType": "bytes32",
          "name": "role",
          "type": "bytes32"
        },
        {
          "indexed": true,
          "internalType": "bytes32",
          "name": "previousAdminRole",
          "type": "bytes32"
        },
        {
          "indexed": true,
          "internalType": "bytes32",
          "name": "newAdminRole",
          "type": "bytes32"
        }
      ],
      "name": "RoleAdminChanged",
      "type": "event"
    },
    {
      "anonymous": false,
      "inputs": [
        {
          "indexed": true,
          "internalType": "bytes32",
          "name": "role",
          "type": "bytes32"
        },
        {
          "indexed": true,
          "internalType": "address",
          "name": "account",
          "type": "address"
        },
        {
          "indexed": true,
          "internalType": "address",
          "name": "sender",
          "type": "address"
        }
      ],
      "name": "RoleGranted",
      "type": "event"
    },
    {
      "anonymous": false,
      "inputs": [
        {
          "indexed": true,
          "internalType": "bytes32",
          "name": "role",
          "type": "bytes32"
        },
        {
          "indexed": true,
          "internalType": "address",
          "name": "account",
          "type": "address"
        },
        {
          "indexed": true,
          "internalType": "address",
          "name": "sender",
          "type": "address"
        }
      ],
      "name": "RoleRevoked",
      "type": "event"
    },
    {
      "inputs": [],
      "name": "DEFAULT_ADMIN_ROLE",
      "outputs": [
        {
          "internalType": "bytes32",
          "name": "",
          "type": "bytes32"
        }
      ],
      "stateMutability": "view",
      "type": "function"
    },
    {
      "inputs": [],
      "name": "MANAGER_ROLE",
      "outputs": [
        {
          "internalType": "bytes32",
          "name": "",
          "type": "bytes32"
        }
      ],
      "stateMutability": "view",
      "type": "function"
    },
    {
      "inputs": [
        {
          "internalType": "address",
          "name": "managerAddress",
          "type": "address"
        }
      ],
      "name": "addManager",
      "outputs": [],
      "stateMutability": "nonpayable",
      "type": "function"
    },
    {
      "inputs": [],
      "name": "amIManager",
      "outputs": [
        {
          "internalType": "bool",
          "name": "",
          "type": "bool"
        }
      ],
      "stateMutability": "view",
      "type": "function"
    },
    {
      "inputs": [],
      "name": "amIOwner",
      "outputs": [
        {
          "internalType": "bool",
          "name": "",
          "type": "bool"
        }
      ],
      "stateMutability": "view",
      "type": "function"
    },
    {
      "inputs": [
        {
          "internalType": "uint256",
          "name": "ticketCount",
          "type": "uint256"
        }
      ],
      "name": "buyTickets",
      "outputs": [],
      "stateMutability": "nonpayable",
      "type": "function"
    },
    {
      "inputs": [],
      "name": "draw",
      "outputs": [],
      "stateMutability": "nonpayable",
      "type": "function"
    },
    {
      "inputs": [],
      "name": "getManagers",
      "outputs": [
        {
          "internalType": "address[]",
          "name": "",
          "type": "address[]"
        }
      ],
      "stateMutability": "view",
      "type": "function"
    },
    {
      "inputs": [],
      "name": "getPrizeTotal",
      "outputs": [
        {
          "internalType": "uint256",
          "name": "",
          "type": "uint256"
        }
      ],
      "stateMutability": "view",
      "type": "function"
    },
    {
      "inputs": [
        {
          "internalType": "bytes32",
          "name": "role",
          "type": "bytes32"
        }
      ],
      "name": "getRoleAdmin",
      "outputs": [
        {
          "internalType": "bytes32",
          "name": "",
          "type": "bytes32"
        }
      ],
      "stateMutability": "view",
      "type": "function"
    },
    {
      "inputs": [
        {
          "internalType": "bytes32",
          "name": "role",
          "type": "bytes32"
        },
        {
          "internalType": "uint256",
          "name": "index",
          "type": "uint256"
        }
      ],
      "name": "getRoleMember",
      "outputs": [
        {
          "internalType": "address",
          "name": "",
          "type": "address"
        }
      ],
      "stateMutability": "view",
      "type": "function"
    },
    {
      "inputs": [
        {
          "internalType": "bytes32",
          "name": "role",
          "type": "bytes32"
        }
      ],
      "name": "getRoleMemberCount",
      "outputs": [
        {
          "internalType": "uint256",
          "name": "",
          "type": "uint256"
        }
      ],
      "stateMutability": "view",
      "type": "function"
    },
    {
      "inputs": [],
      "name": "getTicketPrice",
      "outputs": [
        {
          "internalType": "uint256",
          "name": "",
          "type": "uint256"
        }
      ],
      "stateMutability": "view",
      "type": "function"
    },
    {
      "inputs": [],
      "name": "getTickets",
      "outputs": [
        {
          "internalType": "uint256",
          "name": "",
          "type": "uint256"
        }
      ],
      "stateMutability": "view",
      "type": "function"
    },
    {
      "inputs": [
        {
          "internalType": "bytes32",
          "name": "role",
          "type": "bytes32"
        },
        {
          "internalType": "address",
          "name": "account",
          "type": "address"
        }
      ],
      "name": "grantRole",
      "outputs": [],
      "stateMutability": "nonpayable",
      "type": "function"
    },
    {
      "inputs": [
        {
          "internalType": "bytes32",
          "name": "role",
          "type": "bytes32"
        },
        {
          "internalType": "address",
          "name": "account",
          "type": "address"
        }
      ],
      "name": "hasRole",
      "outputs": [
        {
          "internalType": "bool",
          "name": "",
          "type": "bool"
        }
      ],
      "stateMutability": "view",
      "type": "function"
    },
    {
      "inputs": [],
      "name": "owner",
      "outputs": [
        {
          "internalType": "address",
          "name": "",
          "type": "address"
        }
      ],
      "stateMutability": "view",
      "type": "function"
    },
    {
      "inputs": [
        {
          "internalType": "address",
          "name": "recipient",
          "type": "address"
        }
      ],
      "name": "ownerWithdraw",
      "outputs": [],
      "stateMutability": "nonpayable",
      "type": "function"
    },
    {
      "inputs": [],
      "name": "renounceOwnership",
      "outputs": [],
      "stateMutability": "nonpayable",
      "type": "function"
    },
    {
      "inputs": [
        {
          "internalType": "bytes32",
          "name": "role",
          "type": "bytes32"
        },
        {
          "internalType": "address",
          "name": "account",
          "type": "address"
        }
      ],
      "name": "renounceRole",
      "outputs": [],
      "stateMutability": "nonpayable",
      "type": "function"
    },
    {
      "inputs": [
        {
          "internalType": "bytes32",
          "name": "role",
          "type": "bytes32"
        },
        {
          "internalType": "address",
          "name": "account",
          "type": "address"
        }
      ],
      "name": "revokeRole",
      "outputs": [],
      "stateMutability": "nonpayable",
      "type": "function"
    },
    {
      "inputs": [
        {
          "internalType": "uint256",
          "name": "targetTicketPrice",
          "type": "uint256"
        }
      ],
      "name": "setTicketPrice",
      "outputs": [],
      "stateMutability": "nonpayable",
      "type": "function"
    },
    {
      "inputs": [
        {
          "internalType": "bytes4",
          "name": "interfaceId",
          "type": "bytes4"
        }
      ],
      "name": "supportsInterface",
      "outputs": [
        {
          "internalType": "bool",
          "name": "",
          "type": "bool"
        }
      ],
      "stateMutability": "view",
      "type": "function"
    },
    {
      "inputs": [],
      "name": "token",
      "outputs": [
        {
          "internalType": "contract IERC20",
          "name": "",
          "type": "address"
        }
      ],
      "stateMutability": "view",
      "type": "function"
    },
    {
      "inputs": [
        {
          "internalType": "address",
          "name": "newOwner",
          "type": "address"
        }
      ],
      "name": "transferOwnership",
      "outputs": [],
      "stateMutability": "nonpayable",
      "type": "function"
    }
  ],
  "bytecode": "0x60806040523480156200001157600080fd5b50604051620034f6380380620034f6833981810160405281019062000037919062000486565b620000576200004b620000e960201b60201c565b620000f160201b60201c565b80600860006101000a81548173ffffffffffffffffffffffffffffffffffffffff021916908373ffffffffffffffffffffffffffffffffffffffff1602179055506801158e460913d0000060048190555061012c42620000b89190620004b2565b600781905550620000e26000801b620000d6620001b760201b60201c565b620001e160201b60201c565b5062000588565b600033905090565b6000600260009054906101000a900473ffffffffffffffffffffffffffffffffffffffff16905081600260006101000a81548173ffffffffffffffffffffffffffffffffffffffff021916908373ffffffffffffffffffffffffffffffffffffffff1602179055508173ffffffffffffffffffffffffffffffffffffffff168173ffffffffffffffffffffffffffffffffffffffff167f8be0079c531659141344cd1fd0a4f28419497f9722a3daafe3b4186f6b6457e060405160405180910390a35050565b6000600260009054906101000a900473ffffffffffffffffffffffffffffffffffffffff16905090565b620001f38282620001f760201b60201c565b5050565b6200020e82826200023f60201b6200151b1760201c565b6200023a81600160008581526020019081526020016000206200033060201b620015fb1790919060201c565b505050565b6200025182826200036860201b60201c565b6200032c57600160008084815260200190815260200160002060000160008373ffffffffffffffffffffffffffffffffffffffff1673ffffffffffffffffffffffffffffffffffffffff16815260200190815260200160002060006101000a81548160ff021916908315150217905550620002d1620000e960201b60201c565b73ffffffffffffffffffffffffffffffffffffffff168173ffffffffffffffffffffffffffffffffffffffff16837f2f8788117e7eff1d82e926ec794901d17c78024a50270940304540a733656f0d60405160405180910390a45b5050565b600062000360836000018373ffffffffffffffffffffffffffffffffffffffff1660001b620003d260201b60201c565b905092915050565b600080600084815260200190815260200160002060000160008373ffffffffffffffffffffffffffffffffffffffff1673ffffffffffffffffffffffffffffffffffffffff16815260200190815260200160002060009054906101000a900460ff16905092915050565b6000620003e683836200044c60201b60201c565b6200044157826000018290806001815401808255809150506001900390600052602060002001600090919091909150558260000180549050836001016000848152602001908152602001600020819055506001905062000446565b600090505b92915050565b600080836001016000848152602001908152602001600020541415905092915050565b60008151905062000480816200056e565b92915050565b6000602082840312156200049957600080fd5b6000620004a9848285016200046f565b91505092915050565b6000620004bf8262000535565b9150620004cc8362000535565b925082821015620004e257620004e16200053f565b5b828203905092915050565b6000620004fa8262000515565b9050919050565b60006200050e82620004ed565b9050919050565b600073ffffffffffffffffffffffffffffffffffffffff82169050919050565b6000819050919050565b7f4e487b7100000000000000000000000000000000000000000000000000000000600052601160045260246000fd5b620005798162000501565b81146200058557600080fd5b50565b612f5e80620005986000396000f3fe608060405234801561001057600080fd5b50600436106101735760003560e01c806387bb7ae0116100de578063a8d088bb11610097578063ec87621c11610071578063ec87621c14610414578063f2fde38b14610432578063f9bfaa7d1461044e578063fc0c546a1461046a57610173565b8063a8d088bb146103aa578063ca15c873146103c8578063d547741f146103f857610173565b806387bb7ae0146102d25780638da5cb5b146102f05780639010d07c1461030e57806391d148541461033e5780639f70ede21461036e578063a217fddf1461038c57610173565b80632f366637116101305780632f3666371461023657806336568abe146102525780634e4ab8301461026e5780634ed026221461028c5780635c8dce64146102aa578063715018a6146102c857610173565b806301ffc9a7146101785780630eecae21146101a857806315981650146101b2578063248a9ca3146101ce5780632d06177a146101fe5780632f2ff15d1461021a575b600080fd5b610192600480360381019061018d9190612167565b610488565b60405161019f919061266d565b60405180910390f35b6101b0610502565b005b6101cc60048036038101906101c79190612190565b6107cd565b005b6101e860048036038101906101e391906120c6565b610853565b6040516101f59190612688565b60405180910390f35b61021860048036038101906102139190612074565b610872565b005b610234600480360381019061022f91906120ef565b61098c565b005b610250600480360381019061024b9190612190565b6109b5565b005b61026c600480360381019061026791906120ef565b610c23565b005b610276610ca6565b604051610283919061266d565b60405180910390f35b610294610ce3565b6040516102a19190612840565b60405180910390f35b6102b2610dbd565b6040516102bf919061266d565b60405180910390f35b6102d0610dee565b005b6102da610e76565b6040516102e79190612840565b60405180910390f35b6102f8610efc565b60405161030591906125d0565b60405180910390f35b6103286004803603810190610323919061212b565b610f26565b60405161033591906125d0565b60405180910390f35b610358600480360381019061035391906120ef565b610f55565b604051610365919061266d565b60405180910390f35b610376610fbf565b6040516103839190612840565b60405180910390f35b610394610fc9565b6040516103a19190612688565b60405180910390f35b6103b2610fd0565b6040516103bf919061264b565b60405180910390f35b6103e260048036038101906103dd91906120c6565b6111d4565b6040516103ef9190612840565b60405180910390f35b610412600480360381019061040d91906120ef565b6111f8565b005b61041c611221565b6040516104299190612688565b60405180910390f35b61044c60048036038101906104479190612074565b611245565b005b61046860048036038101906104639190612074565b61133d565b005b6104726114f5565b60405161047f91906126a3565b60405180910390f35b60007f5a05180f000000000000000000000000000000000000000000000000000000007bffffffffffffffffffffffffffffffffffffffffffffffffffffffff1916827bffffffffffffffffffffffffffffffffffffffffffffffffffffffff191614806104fb57506104fa8261162b565b5b9050919050565b61050a610efc565b73ffffffffffffffffffffffffffffffffffffffff163373ffffffffffffffffffffffffffffffffffffffff16148061056957506105687f241ecf16d79d0f8dbfb92cbc07fe17840425976cf0667f022fe9877caa831b0833610f55565b5b6105a8576040517f08c379a000000000000000000000000000000000000000000000000000000000815260040161059f906127a0565b60405180910390fd5b6000600380549050116105f0576040517f08c379a00000000000000000000000000000000000000000000000000000000081526004016105e790612760565b60405180910390fd5b61012c60075461060091906128f3565b4211610641576040517f08c379a000000000000000000000000000000000000000000000000000000000815260040161063890612740565b60405180910390fd5b6000600380805490506106526116a5565b61065c9190612b94565b81548110610693577f4e487b7100000000000000000000000000000000000000000000000000000000600052603260045260246000fd5b9060005260206000200160009054906101000a900473ffffffffffffffffffffffffffffffffffffffff169050600860009054906101000a900473ffffffffffffffffffffffffffffffffffffffff1673ffffffffffffffffffffffffffffffffffffffff1663a9059cbb826006546040518363ffffffff1660e01b815260040161071f929190612622565b602060405180830381600087803b15801561073957600080fd5b505af115801561074d573d6000803e3d6000fd5b505050506040513d601f19601f82011682018060405250810190610771919061209d565b507f31528981b9aa7de7063ee4d17e0b80ff41aaf2b97820c0e4e6d746bbf9202cbd816006546040516107a5929190612622565b60405180910390a1600360006107bb9190611fcd565b42600781905550600060068190555050565b6107d56116db565b73ffffffffffffffffffffffffffffffffffffffff166107f3610efc565b73ffffffffffffffffffffffffffffffffffffffff1614610849576040517f08c379a0000000000000000000000000000000000000000000000000000000008152600401610840906127e0565b60405180910390fd5b8060048190555050565b6000806000838152602001908152602001600020600101549050919050565b61087a6116db565b73ffffffffffffffffffffffffffffffffffffffff16610898610efc565b73ffffffffffffffffffffffffffffffffffffffff16146108ee576040517f08c379a00000000000000000000000000000000000000000000000000000000081526004016108e5906127e0565b60405180910390fd5b60006109197f241ecf16d79d0f8dbfb92cbc07fe17840425976cf0667f022fe9877caa831b086111d4565b90506002811061095e576040517f08c379a000000000000000000000000000000000000000000000000000000000815260040161095590612780565b60405180910390fd5b6109887f241ecf16d79d0f8dbfb92cbc07fe17840425976cf0667f022fe9877caa831b088361098c565b5050565b61099582610853565b6109a6816109a16116db565b6116e3565b6109b08383611780565b505050565b60008114156109f9576040517f08c379a00000000000000000000000000000000000000000000000000000000081526004016109f0906127c0565b60405180910390fd5b600060045482610a09919061297a565b90506000600860009054906101000a900473ffffffffffffffffffffffffffffffffffffffff1673ffffffffffffffffffffffffffffffffffffffff166323b872dd3330856040518463ffffffff1660e01b8152600401610a6c939291906125eb565b602060405180830381600087803b158015610a8657600080fd5b505af1158015610a9a573d6000803e3d6000fd5b505050506040513d601f19601f82011682018060405250810190610abe919061209d565b905080610b00576040517f08c379a0000000000000000000000000000000000000000000000000000000008152600401610af790612820565b60405180910390fd5b7fdd9561054037fc839cbd1591c7d00e69c411681f9f3c8162ce4658946645eb7b3383604051610b31929190612622565b60405180910390a160005b83811015610bba576003339080600181540180825580915050600190039060005260206000200160009091909190916101000a81548173ffffffffffffffffffffffffffffffffffffffff021916908373ffffffffffffffffffffffffffffffffffffffff1602179055508080610bb290612b41565b915050610b3c565b5060006101f4905060006127108285610bd3919061297a565b610bdd9190612949565b90508084610beb91906129d4565b60066000828254610bfc91906128f3565b925050819055508060056000828254610c1591906128f3565b925050819055505050505050565b610c2b6116db565b73ffffffffffffffffffffffffffffffffffffffff168173ffffffffffffffffffffffffffffffffffffffff1614610c98576040517f08c379a0000000000000000000000000000000000000000000000000000000008152600401610c8f90612800565b60405180910390fd5b610ca282826117b4565b5050565b6000610cb0610efc565b73ffffffffffffffffffffffffffffffffffffffff163373ffffffffffffffffffffffffffffffffffffffff1614905090565b6000806000905060005b600380549050811015610db5573373ffffffffffffffffffffffffffffffffffffffff1660038281548110610d4b577f4e487b7100000000000000000000000000000000000000000000000000000000600052603260045260246000fd5b9060005260206000200160009054906101000a900473ffffffffffffffffffffffffffffffffffffffff1673ffffffffffffffffffffffffffffffffffffffff161415610da257600182610d9f91906128f3565b91505b8080610dad90612b41565b915050610ced565b508091505090565b6000610de97f241ecf16d79d0f8dbfb92cbc07fe17840425976cf0667f022fe9877caa831b0833610f55565b905090565b610df66116db565b73ffffffffffffffffffffffffffffffffffffffff16610e14610efc565b73ffffffffffffffffffffffffffffffffffffffff1614610e6a576040517f08c379a0000000000000000000000000000000000000000000000000000000008152600401610e61906127e0565b60405180910390fd5b610e7460006117e8565b565b6000610e806116db565b73ffffffffffffffffffffffffffffffffffffffff16610e9e610efc565b73ffffffffffffffffffffffffffffffffffffffff1614610ef4576040517f08c379a0000000000000000000000000000000000000000000000000000000008152600401610eeb906127e0565b60405180910390fd5b600454905090565b6000600260009054906101000a900473ffffffffffffffffffffffffffffffffffffffff16905090565b6000610f4d82600160008681526020019081526020016000206118ae90919063ffffffff16565b905092915050565b600080600084815260200190815260200160002060000160008373ffffffffffffffffffffffffffffffffffffffff1673ffffffffffffffffffffffffffffffffffffffff16815260200190815260200160002060009054906101000a900460ff16905092915050565b6000600654905090565b6000801b81565b6060610fda6116db565b73ffffffffffffffffffffffffffffffffffffffff16610ff8610efc565b73ffffffffffffffffffffffffffffffffffffffff161461104e576040517f08c379a0000000000000000000000000000000000000000000000000000000008152600401611045906127e0565b60405180910390fd5b60006110797f241ecf16d79d0f8dbfb92cbc07fe17840425976cf0667f022fe9877caa831b086111d4565b67ffffffffffffffff8111156110b8577f4e487b7100000000000000000000000000000000000000000000000000000000600052604160045260246000fd5b6040519080825280602002602001820160405280156110e65781602001602082028036833780820191505090505b50905060005b6111157f241ecf16d79d0f8dbfb92cbc07fe17840425976cf0667f022fe9877caa831b086111d4565b8110156111cc576111467f241ecf16d79d0f8dbfb92cbc07fe17840425976cf0667f022fe9877caa831b0882610f26565b82828151811061117f577f4e487b7100000000000000000000000000000000000000000000000000000000600052603260045260246000fd5b602002602001019073ffffffffffffffffffffffffffffffffffffffff16908173ffffffffffffffffffffffffffffffffffffffff168152505080806111c490612b41565b9150506110ec565b508091505090565b60006111f1600160008481526020019081526020016000206118c8565b9050919050565b61120182610853565b6112128161120d6116db565b6116e3565b61121c83836117b4565b505050565b7f241ecf16d79d0f8dbfb92cbc07fe17840425976cf0667f022fe9877caa831b0881565b61124d6116db565b73ffffffffffffffffffffffffffffffffffffffff1661126b610efc565b73ffffffffffffffffffffffffffffffffffffffff16146112c1576040517f08c379a00000000000000000000000000000000000000000000000000000000081526004016112b8906127e0565b60405180910390fd5b600073ffffffffffffffffffffffffffffffffffffffff168173ffffffffffffffffffffffffffffffffffffffff161415611331576040517f08c379a000000000000000000000000000000000000000000000000000000000815260040161132890612720565b60405180910390fd5b61133a816117e8565b50565b6113456116db565b73ffffffffffffffffffffffffffffffffffffffff16611363610efc565b73ffffffffffffffffffffffffffffffffffffffff16146113b9576040517f08c379a00000000000000000000000000000000000000000000000000000000081526004016113b0906127e0565b60405180910390fd5b6000600860009054906101000a900473ffffffffffffffffffffffffffffffffffffffff1673ffffffffffffffffffffffffffffffffffffffff1663a9059cbb836005546040518363ffffffff1660e01b815260040161141a929190612622565b602060405180830381600087803b15801561143457600080fd5b505af1158015611448573d6000803e3d6000fd5b505050506040513d601f19601f8201168201806040525081019061146c919061209d565b9050806114ae576040517f08c379a00000000000000000000000000000000000000000000000000000000081526004016114a590612700565b60405180910390fd5b60006005819055507f31528981b9aa7de7063ee4d17e0b80ff41aaf2b97820c0e4e6d746bbf9202cbd826005546040516114e9929190612622565b60405180910390a15050565b600860009054906101000a900473ffffffffffffffffffffffffffffffffffffffff1681565b6115258282610f55565b6115f757600160008084815260200190815260200160002060000160008373ffffffffffffffffffffffffffffffffffffffff1673ffffffffffffffffffffffffffffffffffffffff16815260200190815260200160002060006101000a81548160ff02191690831515021790555061159c6116db565b73ffffffffffffffffffffffffffffffffffffffff168173ffffffffffffffffffffffffffffffffffffffff16837f2f8788117e7eff1d82e926ec794901d17c78024a50270940304540a733656f0d60405160405180910390a45b5050565b6000611623836000018373ffffffffffffffffffffffffffffffffffffffff1660001b6118dd565b905092915050565b60007f7965db0b000000000000000000000000000000000000000000000000000000007bffffffffffffffffffffffffffffffffffffffffffffffffffffffff1916827bffffffffffffffffffffffffffffffffffffffffffffffffffffffff1916148061169e575061169d8261194d565b5b9050919050565b6000444260036040516020016116bd93929190612597565b6040516020818303038152906040528051906020012060001c905090565b600033905090565b6116ed8282610f55565b61177c576117128173ffffffffffffffffffffffffffffffffffffffff1660146119b7565b6117208360001c60206119b7565b60405160200161173192919061255d565b6040516020818303038152906040526040517f08c379a000000000000000000000000000000000000000000000000000000000815260040161177391906126be565b60405180910390fd5b5050565b61178a828261151b565b6117af81600160008581526020019081526020016000206115fb90919063ffffffff16565b505050565b6117be8282611cb1565b6117e38160016000858152602001908152602001600020611d9290919063ffffffff16565b505050565b6000600260009054906101000a900473ffffffffffffffffffffffffffffffffffffffff16905081600260006101000a81548173ffffffffffffffffffffffffffffffffffffffff021916908373ffffffffffffffffffffffffffffffffffffffff1602179055508173ffffffffffffffffffffffffffffffffffffffff168173ffffffffffffffffffffffffffffffffffffffff167f8be0079c531659141344cd1fd0a4f28419497f9722a3daafe3b4186f6b6457e060405160405180910390a35050565b60006118bd8360000183611dc2565b60001c905092915050565b60006118d682600001611e13565b9050919050565b60006118e98383611e24565b611942578260000182908060018154018082558091505060019003906000526020600020016000909190919091505582600001805490508360010160008481526020019081526020016000208190555060019050611947565b600090505b92915050565b60007f01ffc9a7000000000000000000000000000000000000000000000000000000007bffffffffffffffffffffffffffffffffffffffffffffffffffffffff1916827bffffffffffffffffffffffffffffffffffffffffffffffffffffffff1916149050919050565b6060600060028360026119ca919061297a565b6119d491906128f3565b67ffffffffffffffff811115611a13577f4e487b7100000000000000000000000000000000000000000000000000000000600052604160045260246000fd5b6040519080825280601f01601f191660200182016040528015611a455781602001600182028036833780820191505090505b5090507f300000000000000000000000000000000000000000000000000000000000000081600081518110611aa3577f4e487b7100000000000000000000000000000000000000000000000000000000600052603260045260246000fd5b60200101907effffffffffffffffffffffffffffffffffffffffffffffffffffffffffffff1916908160001a9053507f780000000000000000000000000000000000000000000000000000000000000081600181518110611b2d577f4e487b7100000000000000000000000000000000000000000000000000000000600052603260045260246000fd5b60200101907effffffffffffffffffffffffffffffffffffffffffffffffffffffffffffff1916908160001a90535060006001846002611b6d919061297a565b611b7791906128f3565b90505b6001811115611c63577f3031323334353637383961626364656600000000000000000000000000000000600f861660108110611bdf577f4e487b7100000000000000000000000000000000000000000000000000000000600052603260045260246000fd5b1a60f81b828281518110611c1c577f4e487b7100000000000000000000000000000000000000000000000000000000600052603260045260246000fd5b60200101907effffffffffffffffffffffffffffffffffffffffffffffffffffffffffffff1916908160001a905350600485901c945080611c5c90612afd565b9050611b7a565b5060008414611ca7576040517f08c379a0000000000000000000000000000000000000000000000000000000008152600401611c9e906126e0565b60405180910390fd5b8091505092915050565b611cbb8282610f55565b15611d8e57600080600084815260200190815260200160002060000160008373ffffffffffffffffffffffffffffffffffffffff1673ffffffffffffffffffffffffffffffffffffffff16815260200190815260200160002060006101000a81548160ff021916908315150217905550611d336116db565b73ffffffffffffffffffffffffffffffffffffffff168173ffffffffffffffffffffffffffffffffffffffff16837ff6391f5c32d9c69d2a47ea670b442974b53935d1edc7fd64eb21e047a839171b60405160405180910390a45b5050565b6000611dba836000018373ffffffffffffffffffffffffffffffffffffffff1660001b611e47565b905092915050565b6000826000018281548110611e00577f4e487b7100000000000000000000000000000000000000000000000000000000600052603260045260246000fd5b9060005260206000200154905092915050565b600081600001805490509050919050565b600080836001016000848152602001908152602001600020541415905092915050565b60008083600101600084815260200190815260200160002054905060008114611fc1576000600182611e7991906129d4565b9050600060018660000180549050611e9191906129d4565b9050818114611f4c576000866000018281548110611ed8577f4e487b7100000000000000000000000000000000000000000000000000000000600052603260045260246000fd5b9060005260206000200154905080876000018481548110611f22577f4e487b7100000000000000000000000000000000000000000000000000000000600052603260045260246000fd5b90600052602060002001819055508387600101600083815260200190815260200160002081905550505b85600001805480611f86577f4e487b7100000000000000000000000000000000000000000000000000000000600052603160045260246000fd5b600190038181906000526020600020016000905590558560010160008681526020019081526020016000206000905560019350505050611fc7565b60009150505b92915050565b5080546000825590600052602060002090810190611feb9190611fee565b50565b5b80821115612007576000816000905550600101611fef565b5090565b60008135905061201a81612eb5565b92915050565b60008151905061202f81612ecc565b92915050565b60008135905061204481612ee3565b92915050565b60008135905061205981612efa565b92915050565b60008135905061206e81612f11565b92915050565b60006020828403121561208657600080fd5b60006120948482850161200b565b91505092915050565b6000602082840312156120af57600080fd5b60006120bd84828501612020565b91505092915050565b6000602082840312156120d857600080fd5b60006120e684828501612035565b91505092915050565b6000806040838503121561210257600080fd5b600061211085828601612035565b92505060206121218582860161200b565b9150509250929050565b6000806040838503121561213e57600080fd5b600061214c85828601612035565b925050602061215d8582860161205f565b9150509250929050565b60006020828403121561217957600080fd5b60006121878482850161204a565b91505092915050565b6000602082840312156121a257600080fd5b60006121b08482850161205f565b91505092915050565b60006121c583836121e9565b60208301905092915050565b60006121dd8383612207565b60208301905092915050565b6121f281612a28565b82525050565b61220181612a28565b82525050565b61221081612a28565b82525050565b600061222182612880565b61222b81856128bb565b93506122368361285b565b8060005b8381101561226757815161224e88826121b9565b9750612259836128a1565b92505060018101905061223a565b5085935050505092915050565b600061227f8261288b565b61228981856128cc565b93506122948361286b565b8060005b838110156122cc576122a982612c23565b6122b388826121d1565b97506122be836128ae565b925050600181019050612298565b5085935050505092915050565b6122e281612a3a565b82525050565b6122f181612a46565b82525050565b61230081612aa6565b82525050565b600061231182612896565b61231b81856128d7565b935061232b818560208601612aca565b61233481612c36565b840191505092915050565b600061234a82612896565b61235481856128e8565b9350612364818560208601612aca565b80840191505092915050565b600061237d6020836128d7565b915061238882612c54565b602082019050919050565b60006123a06015836128d7565b91506123ab82612c7d565b602082019050919050565b60006123c36026836128d7565b91506123ce82612ca6565b604082019050919050565b60006123e6601c836128d7565b91506123f182612cf5565b602082019050919050565b6000612409600a836128d7565b915061241482612d1e565b602082019050919050565b600061242c6011836128d7565b915061243782612d47565b602082019050919050565b600061244f6020836128d7565b915061245a82612d70565b602082019050919050565b60006124726010836128d7565b915061247d82612d99565b602082019050919050565b60006124956020836128d7565b91506124a082612dc2565b602082019050919050565b60006124b86017836128e8565b91506124c382612deb565b601782019050919050565b60006124db6011836128e8565b91506124e682612e14565b601182019050919050565b60006124fe602f836128d7565b915061250982612e3d565b604082019050919050565b60006125216019836128d7565b915061252c82612e8c565b602082019050919050565b61254081612a9c565b82525050565b61255761255282612a9c565b612b8a565b82525050565b6000612568826124ab565b9150612574828561233f565b915061257f826124ce565b915061258b828461233f565b91508190509392505050565b60006125a38286612546565b6020820191506125b38285612546565b6020820191506125c38284612274565b9150819050949350505050565b60006020820190506125e560008301846121f8565b92915050565b600060608201905061260060008301866121f8565b61260d60208301856121f8565b61261a6040830184612537565b949350505050565b600060408201905061263760008301856121f8565b6126446020830184612537565b9392505050565b600060208201905081810360008301526126658184612216565b905092915050565b600060208201905061268260008301846122d9565b92915050565b600060208201905061269d60008301846122e8565b92915050565b60006020820190506126b860008301846122f7565b92915050565b600060208201905081810360008301526126d88184612306565b905092915050565b600060208201905081810360008301526126f981612370565b9050919050565b6000602082019050818103600083015261271981612393565b9050919050565b60006020820190508181036000830152612739816123b6565b9050919050565b60006020820190508181036000830152612759816123d9565b9050919050565b60006020820190508181036000830152612779816123fc565b9050919050565b600060208201905081810360008301526127998161241f565b9050919050565b600060208201905081810360008301526127b981612442565b9050919050565b600060208201905081810360008301526127d981612465565b9050919050565b600060208201905081810360008301526127f981612488565b9050919050565b60006020820190508181036000830152612819816124f1565b9050919050565b6000602082019050818103600083015261283981612514565b9050919050565b60006020820190506128556000830184612537565b92915050565b6000819050602082019050919050565b60008190508160005260206000209050919050565b600081519050919050565b600081549050919050565b600081519050919050565b6000602082019050919050565b6000600182019050919050565b600082825260208201905092915050565b600081905092915050565b600082825260208201905092915050565b600081905092915050565b60006128fe82612a9c565b915061290983612a9c565b9250827fffffffffffffffffffffffffffffffffffffffffffffffffffffffffffffffff0382111561293e5761293d612bc5565b5b828201905092915050565b600061295482612a9c565b915061295f83612a9c565b92508261296f5761296e612bf4565b5b828204905092915050565b600061298582612a9c565b915061299083612a9c565b9250817fffffffffffffffffffffffffffffffffffffffffffffffffffffffffffffffff04831182151516156129c9576129c8612bc5565b5b828202905092915050565b60006129df82612a9c565b91506129ea83612a9c565b9250828210156129fd576129fc612bc5565b5b828203905092915050565b600073ffffffffffffffffffffffffffffffffffffffff82169050919050565b6000612a3382612a7c565b9050919050565b60008115159050919050565b6000819050919050565b60007fffffffff0000000000000000000000000000000000000000000000000000000082169050919050565b600073ffffffffffffffffffffffffffffffffffffffff82169050919050565b6000819050919050565b6000612ab182612ab8565b9050919050565b6000612ac382612a7c565b9050919050565b60005b83811015612ae8578082015181840152602081019050612acd565b83811115612af7576000848401525b50505050565b6000612b0882612a9c565b91506000821415612b1c57612b1b612bc5565b5b600182039050919050565b6000612b3a612b3583612c47565b612a08565b9050919050565b6000612b4c82612a9c565b91507fffffffffffffffffffffffffffffffffffffffffffffffffffffffffffffffff821415612b7f57612b7e612bc5565b5b600182019050919050565b6000819050919050565b6000612b9f82612a9c565b9150612baa83612a9c565b925082612bba57612bb9612bf4565b5b828206905092915050565b7f4e487b7100000000000000000000000000000000000000000000000000000000600052601160045260246000fd5b7f4e487b7100000000000000000000000000000000000000000000000000000000600052601260045260246000fd5b6000612c2f8254612b27565b9050919050565b6000601f19601f8301169050919050565b60008160001c9050919050565b7f537472696e67733a20686578206c656e67746820696e73756666696369656e74600082015250565b7f6572726f7220647572696e67207472616e736665720000000000000000000000600082015250565b7f4f776e61626c653a206e6577206f776e657220697320746865207a65726f206160008201527f6464726573730000000000000000000000000000000000000000000000000000602082015250565b7f6e6565642035206d696e75746573206265747765656e20647261777300000000600082015250565b7f6e6f207469636b65747300000000000000000000000000000000000000000000600082015250565b7f746f6f206d616e79206d616e6167657273000000000000000000000000000000600082015250565b7f6d73672e73656e646572206d757374206265206f776e65722f6d616e61676572600082015250565b7f7a65726f207469636b6574436f756e7400000000000000000000000000000000600082015250565b7f4f776e61626c653a2063616c6c6572206973206e6f7420746865206f776e6572600082015250565b7f416363657373436f6e74726f6c3a206163636f756e7420000000000000000000600082015250565b7f206973206d697373696e6720726f6c6520000000000000000000000000000000600082015250565b7f416363657373436f6e74726f6c3a2063616e206f6e6c792072656e6f756e636560008201527f20726f6c657320666f722073656c660000000000000000000000000000000000602082015250565b7f6572726f7220647572696e67207472616e7366657246726f6d00000000000000600082015250565b612ebe81612a28565b8114612ec957600080fd5b50565b612ed581612a3a565b8114612ee057600080fd5b50565b612eec81612a46565b8114612ef757600080fd5b50565b612f0381612a50565b8114612f0e57600080fd5b50565b612f1a81612a9c565b8114612f2557600080fd5b5056fea264697066735822122051b996cf976a6e0737c5997921ebe8a7817cdefb0a7050d4d7c826310abe3ea264736f6c63430008040033",
  "linkReferences": {},
  "deployedLinkReferences": {}
}