{
  "_format": "hh-sol-artifact-1",
  "contractName": "Lottery",
  "sourceName": "contracts/Lottery.sol",
  "abi": [
    {
      "inputs": [
        {
          "internalType": "contract IERC20",
          "name": "mockTokenAddress",
          "type": "address"
        }
      ],
      "stateMutability": "nonpayable",
      "type": "constructor"
    },
    {
      "anonymous": false,
      "inputs": [
        {
          "indexed": false,
          "internalType": "address",
          "name": "",
          "type": "address"
        },
        {
          "indexed": false,
          "internalType": "uint256",
          "name": "",
          "type": "uint256"
        }
      ],
      "name": "Incoming",
      "type": "event"
    },
    {
      "anonymous": false,
      "inputs": [
        {
          "indexed": false,
          "internalType": "address",
          "name": "",
          "type": "address"
        },
        {
          "indexed": false,
          "internalType": "uint256",
          "name": "",
          "type": "uint256"
        }
      ],
      "name": "Outgoing",
      "type": "event"
    },
    {
      "anonymous": false,
      "inputs": [
        {
          "indexed": true,
          "internalType": "address",
          "name": "previousOwner",
          "type": "address"
        },
        {
          "indexed": true,
          "internalType": "address",
          "name": "newOwner",
          "type": "address"
        }
      ],
      "name": "OwnershipTransferred",
      "type": "event"
    },
    {
      "anonymous": false,
      "inputs": [
        {
          "indexed": true,
          "internalType": "bytes32",
          "name": "role",
          "type": "bytes32"
        },
        {
          "indexed": true,
          "internalType": "bytes32",
          "name": "previousAdminRole",
          "type": "bytes32"
        },
        {
          "indexed": true,
          "internalType": "bytes32",
          "name": "newAdminRole",
          "type": "bytes32"
        }
      ],
      "name": "RoleAdminChanged",
      "type": "event"
    },
    {
      "anonymous": false,
      "inputs": [
        {
          "indexed": true,
          "internalType": "bytes32",
          "name": "role",
          "type": "bytes32"
        },
        {
          "indexed": true,
          "internalType": "address",
          "name": "account",
          "type": "address"
        },
        {
          "indexed": true,
          "internalType": "address",
          "name": "sender",
          "type": "address"
        }
      ],
      "name": "RoleGranted",
      "type": "event"
    },
    {
      "anonymous": false,
      "inputs": [
        {
          "indexed": true,
          "internalType": "bytes32",
          "name": "role",
          "type": "bytes32"
        },
        {
          "indexed": true,
          "internalType": "address",
          "name": "account",
          "type": "address"
        },
        {
          "indexed": true,
          "internalType": "address",
          "name": "sender",
          "type": "address"
        }
      ],
      "name": "RoleRevoked",
      "type": "event"
    },
    {
      "inputs": [],
      "name": "DEFAULT_ADMIN_ROLE",
      "outputs": [
        {
          "internalType": "bytes32",
          "name": "",
          "type": "bytes32"
        }
      ],
      "stateMutability": "view",
      "type": "function"
    },
    {
      "inputs": [],
      "name": "MANAGER_ROLE",
      "outputs": [
        {
          "internalType": "bytes32",
          "name": "",
          "type": "bytes32"
        }
      ],
      "stateMutability": "view",
      "type": "function"
    },
    {
      "inputs": [
        {
          "internalType": "address",
          "name": "managerAddress",
          "type": "address"
        }
      ],
      "name": "addManager",
      "outputs": [],
      "stateMutability": "nonpayable",
      "type": "function"
    },
    {
      "inputs": [],
      "name": "amIManager",
      "outputs": [
        {
          "internalType": "bool",
          "name": "",
          "type": "bool"
        }
      ],
      "stateMutability": "view",
      "type": "function"
    },
    {
      "inputs": [],
      "name": "amIOwner",
      "outputs": [
        {
          "internalType": "bool",
          "name": "",
          "type": "bool"
        }
      ],
      "stateMutability": "view",
      "type": "function"
    },
    {
      "inputs": [
        {
          "internalType": "uint256",
          "name": "ticketCount",
          "type": "uint256"
        }
      ],
      "name": "buyTickets",
      "outputs": [],
      "stateMutability": "nonpayable",
      "type": "function"
    },
    {
      "inputs": [],
      "name": "draw",
      "outputs": [],
      "stateMutability": "nonpayable",
      "type": "function"
    },
    {
      "inputs": [],
      "name": "getManagers",
      "outputs": [
        {
          "internalType": "address[]",
          "name": "",
          "type": "address[]"
        }
      ],
      "stateMutability": "view",
      "type": "function"
    },
    {
      "inputs": [],
      "name": "getPrizeTotal",
      "outputs": [
        {
          "internalType": "uint256",
          "name": "",
          "type": "uint256"
        }
      ],
      "stateMutability": "view",
      "type": "function"
    },
    {
      "inputs": [
        {
          "internalType": "bytes32",
          "name": "role",
          "type": "bytes32"
        }
      ],
      "name": "getRoleAdmin",
      "outputs": [
        {
          "internalType": "bytes32",
          "name": "",
          "type": "bytes32"
        }
      ],
      "stateMutability": "view",
      "type": "function"
    },
    {
      "inputs": [
        {
          "internalType": "bytes32",
          "name": "role",
          "type": "bytes32"
        },
        {
          "internalType": "uint256",
          "name": "index",
          "type": "uint256"
        }
      ],
      "name": "getRoleMember",
      "outputs": [
        {
          "internalType": "address",
          "name": "",
          "type": "address"
        }
      ],
      "stateMutability": "view",
      "type": "function"
    },
    {
      "inputs": [
        {
          "internalType": "bytes32",
          "name": "role",
          "type": "bytes32"
        }
      ],
      "name": "getRoleMemberCount",
      "outputs": [
        {
          "internalType": "uint256",
          "name": "",
          "type": "uint256"
        }
      ],
      "stateMutability": "view",
      "type": "function"
    },
    {
      "inputs": [],
      "name": "getTicketPrice",
      "outputs": [
        {
          "internalType": "uint256",
          "name": "",
          "type": "uint256"
        }
      ],
      "stateMutability": "view",
      "type": "function"
    },
    {
      "inputs": [],
      "name": "getTickets",
      "outputs": [
        {
          "internalType": "uint256",
          "name": "",
          "type": "uint256"
        }
      ],
      "stateMutability": "view",
      "type": "function"
    },
    {
      "inputs": [
        {
          "internalType": "bytes32",
          "name": "role",
          "type": "bytes32"
        },
        {
          "internalType": "address",
          "name": "account",
          "type": "address"
        }
      ],
      "name": "grantRole",
      "outputs": [],
      "stateMutability": "nonpayable",
      "type": "function"
    },
    {
      "inputs": [
        {
          "internalType": "bytes32",
          "name": "role",
          "type": "bytes32"
        },
        {
          "internalType": "address",
          "name": "account",
          "type": "address"
        }
      ],
      "name": "hasRole",
      "outputs": [
        {
          "internalType": "bool",
          "name": "",
          "type": "bool"
        }
      ],
      "stateMutability": "view",
      "type": "function"
    },
    {
      "inputs": [],
      "name": "owner",
      "outputs": [
        {
          "internalType": "address",
          "name": "",
          "type": "address"
        }
      ],
      "stateMutability": "view",
      "type": "function"
    },
    {
      "inputs": [
        {
          "internalType": "address",
          "name": "recipient",
          "type": "address"
        }
      ],
      "name": "ownerWithdraw",
      "outputs": [],
      "stateMutability": "nonpayable",
      "type": "function"
    },
    {
      "inputs": [],
      "name": "renounceOwnership",
      "outputs": [],
      "stateMutability": "nonpayable",
      "type": "function"
    },
    {
      "inputs": [
        {
          "internalType": "bytes32",
          "name": "role",
          "type": "bytes32"
        },
        {
          "internalType": "address",
          "name": "account",
          "type": "address"
        }
      ],
      "name": "renounceRole",
      "outputs": [],
      "stateMutability": "nonpayable",
      "type": "function"
    },
    {
      "inputs": [
        {
          "internalType": "bytes32",
          "name": "role",
          "type": "bytes32"
        },
        {
          "internalType": "address",
          "name": "account",
          "type": "address"
        }
      ],
      "name": "revokeRole",
      "outputs": [],
      "stateMutability": "nonpayable",
      "type": "function"
    },
    {
      "inputs": [
        {
          "internalType": "uint256",
          "name": "targetTicketPrice",
          "type": "uint256"
        }
      ],
      "name": "setTicketPrice",
      "outputs": [],
      "stateMutability": "nonpayable",
      "type": "function"
    },
    {
      "inputs": [
        {
          "internalType": "bytes4",
          "name": "interfaceId",
          "type": "bytes4"
        }
      ],
      "name": "supportsInterface",
      "outputs": [
        {
          "internalType": "bool",
          "name": "",
          "type": "bool"
        }
      ],
      "stateMutability": "view",
      "type": "function"
    },
    {
      "inputs": [],
      "name": "token",
      "outputs": [
        {
          "internalType": "contract IERC20",
          "name": "",
          "type": "address"
        }
      ],
      "stateMutability": "view",
      "type": "function"
    },
    {
      "inputs": [
        {
          "internalType": "address",
          "name": "newOwner",
          "type": "address"
        }
      ],
      "name": "transferOwnership",
      "outputs": [],
      "stateMutability": "nonpayable",
      "type": "function"
    }
  ],
  "bytecode": "0x60806040523480156200001157600080fd5b506040516200347a3803806200347a833981810160405281019062000037919062000486565b620000576200004b620000e960201b60201c565b620000f160201b60201c565b80600860006101000a81548173ffffffffffffffffffffffffffffffffffffffff021916908373ffffffffffffffffffffffffffffffffffffffff1602179055506801158e460913d0000060048190555061012c42620000b89190620004b2565b600781905550620000e26000801b620000d6620001b760201b60201c565b620001e160201b60201c565b5062000588565b600033905090565b6000600260009054906101000a900473ffffffffffffffffffffffffffffffffffffffff16905081600260006101000a81548173ffffffffffffffffffffffffffffffffffffffff021916908373ffffffffffffffffffffffffffffffffffffffff1602179055508173ffffffffffffffffffffffffffffffffffffffff168173ffffffffffffffffffffffffffffffffffffffff167f8be0079c531659141344cd1fd0a4f28419497f9722a3daafe3b4186f6b6457e060405160405180910390a35050565b6000600260009054906101000a900473ffffffffffffffffffffffffffffffffffffffff16905090565b620001f38282620001f760201b60201c565b5050565b6200020e82826200023f60201b6200149f1760201c565b6200023a81600160008581526020019081526020016000206200033060201b6200157f1790919060201c565b505050565b6200025182826200036860201b60201c565b6200032c57600160008084815260200190815260200160002060000160008373ffffffffffffffffffffffffffffffffffffffff1673ffffffffffffffffffffffffffffffffffffffff16815260200190815260200160002060006101000a81548160ff021916908315150217905550620002d1620000e960201b60201c565b73ffffffffffffffffffffffffffffffffffffffff168173ffffffffffffffffffffffffffffffffffffffff16837f2f8788117e7eff1d82e926ec794901d17c78024a50270940304540a733656f0d60405160405180910390a45b5050565b600062000360836000018373ffffffffffffffffffffffffffffffffffffffff1660001b620003d260201b60201c565b905092915050565b600080600084815260200190815260200160002060000160008373ffffffffffffffffffffffffffffffffffffffff1673ffffffffffffffffffffffffffffffffffffffff16815260200190815260200160002060009054906101000a900460ff16905092915050565b6000620003e683836200044c60201b60201c565b6200044157826000018290806001815401808255809150506001900390600052602060002001600090919091909150558260000180549050836001016000848152602001908152602001600020819055506001905062000446565b600090505b92915050565b600080836001016000848152602001908152602001600020541415905092915050565b60008151905062000480816200056e565b92915050565b6000602082840312156200049957600080fd5b6000620004a9848285016200046f565b91505092915050565b6000620004bf8262000535565b9150620004cc8362000535565b925082821015620004e257620004e16200053f565b5b828203905092915050565b6000620004fa8262000515565b9050919050565b60006200050e82620004ed565b9050919050565b600073ffffffffffffffffffffffffffffffffffffffff82169050919050565b6000819050919050565b7f4e487b7100000000000000000000000000000000000000000000000000000000600052601160045260246000fd5b620005798162000501565b81146200058557600080fd5b50565b612ee280620005986000396000f3fe608060405234801561001057600080fd5b50600436106101735760003560e01c806387bb7ae0116100de578063a8d088bb11610097578063ec87621c11610071578063ec87621c14610414578063f2fde38b14610432578063f9bfaa7d1461044e578063fc0c546a1461046a57610173565b8063a8d088bb146103aa578063ca15c873146103c8578063d547741f146103f857610173565b806387bb7ae0146102d25780638da5cb5b146102f05780639010d07c1461030e57806391d148541461033e5780639f70ede21461036e578063a217fddf1461038c57610173565b80632f366637116101305780632f3666371461023657806336568abe146102525780634e4ab8301461026e5780634ed026221461028c5780635c8dce64146102aa578063715018a6146102c857610173565b806301ffc9a7146101785780630eecae21146101a857806315981650146101b2578063248a9ca3146101ce5780632d06177a146101fe5780632f2ff15d1461021a575b600080fd5b610192600480360381019061018d91906120eb565b610488565b60405161019f91906125f1565b60405180910390f35b6101b0610502565b005b6101cc60048036038101906101c79190612114565b6107cd565b005b6101e860048036038101906101e3919061204a565b610853565b6040516101f5919061260c565b60405180910390f35b61021860048036038101906102139190611ff8565b610872565b005b610234600480360381019061022f9190612073565b61098c565b005b610250600480360381019061024b9190612114565b6109b5565b005b61026c60048036038101906102679190612073565b610c23565b005b610276610ca6565b60405161028391906125f1565b60405180910390f35b610294610ce3565b6040516102a191906127c4565b60405180910390f35b6102b2610dbd565b6040516102bf91906125f1565b60405180910390f35b6102d0610dee565b005b6102da610e76565b6040516102e791906127c4565b60405180910390f35b6102f8610e80565b6040516103059190612554565b60405180910390f35b610328600480360381019061032391906120af565b610eaa565b6040516103359190612554565b60405180910390f35b61035860048036038101906103539190612073565b610ed9565b60405161036591906125f1565b60405180910390f35b610376610f43565b60405161038391906127c4565b60405180910390f35b610394610f4d565b6040516103a1919061260c565b60405180910390f35b6103b2610f54565b6040516103bf91906125cf565b60405180910390f35b6103e260048036038101906103dd919061204a565b611158565b6040516103ef91906127c4565b60405180910390f35b610412600480360381019061040d9190612073565b61117c565b005b61041c6111a5565b604051610429919061260c565b60405180910390f35b61044c60048036038101906104479190611ff8565b6111c9565b005b61046860048036038101906104639190611ff8565b6112c1565b005b610472611479565b60405161047f9190612627565b60405180910390f35b60007f5a05180f000000000000000000000000000000000000000000000000000000007bffffffffffffffffffffffffffffffffffffffffffffffffffffffff1916827bffffffffffffffffffffffffffffffffffffffffffffffffffffffff191614806104fb57506104fa826115af565b5b9050919050565b61050a610e80565b73ffffffffffffffffffffffffffffffffffffffff163373ffffffffffffffffffffffffffffffffffffffff16148061056957506105687f241ecf16d79d0f8dbfb92cbc07fe17840425976cf0667f022fe9877caa831b0833610ed9565b5b6105a8576040517f08c379a000000000000000000000000000000000000000000000000000000000815260040161059f90612724565b60405180910390fd5b6000600380549050116105f0576040517f08c379a00000000000000000000000000000000000000000000000000000000081526004016105e7906126e4565b60405180910390fd5b61012c6007546106009190612877565b4211610641576040517f08c379a0000000000000000000000000000000000000000000000000000000008152600401610638906126c4565b60405180910390fd5b600060038080549050610652611629565b61065c9190612b18565b81548110610693577f4e487b7100000000000000000000000000000000000000000000000000000000600052603260045260246000fd5b9060005260206000200160009054906101000a900473ffffffffffffffffffffffffffffffffffffffff169050600860009054906101000a900473ffffffffffffffffffffffffffffffffffffffff1673ffffffffffffffffffffffffffffffffffffffff1663a9059cbb826006546040518363ffffffff1660e01b815260040161071f9291906125a6565b602060405180830381600087803b15801561073957600080fd5b505af115801561074d573d6000803e3d6000fd5b505050506040513d601f19601f820116820180604052508101906107719190612021565b507f31528981b9aa7de7063ee4d17e0b80ff41aaf2b97820c0e4e6d746bbf9202cbd816006546040516107a59291906125a6565b60405180910390a1600360006107bb9190611f51565b42600781905550600060068190555050565b6107d561165f565b73ffffffffffffffffffffffffffffffffffffffff166107f3610e80565b73ffffffffffffffffffffffffffffffffffffffff1614610849576040517f08c379a000000000000000000000000000000000000000000000000000000000815260040161084090612764565b60405180910390fd5b8060048190555050565b6000806000838152602001908152602001600020600101549050919050565b61087a61165f565b73ffffffffffffffffffffffffffffffffffffffff16610898610e80565b73ffffffffffffffffffffffffffffffffffffffff16146108ee576040517f08c379a00000000000000000000000000000000000000000000000000000000081526004016108e590612764565b60405180910390fd5b60006109197f241ecf16d79d0f8dbfb92cbc07fe17840425976cf0667f022fe9877caa831b08611158565b90506002811061095e576040517f08c379a000000000000000000000000000000000000000000000000000000000815260040161095590612704565b60405180910390fd5b6109887f241ecf16d79d0f8dbfb92cbc07fe17840425976cf0667f022fe9877caa831b088361098c565b5050565b61099582610853565b6109a6816109a161165f565b611667565b6109b08383611704565b505050565b60008114156109f9576040517f08c379a00000000000000000000000000000000000000000000000000000000081526004016109f090612744565b60405180910390fd5b600060045482610a0991906128fe565b90506000600860009054906101000a900473ffffffffffffffffffffffffffffffffffffffff1673ffffffffffffffffffffffffffffffffffffffff166323b872dd3330856040518463ffffffff1660e01b8152600401610a6c9392919061256f565b602060405180830381600087803b158015610a8657600080fd5b505af1158015610a9a573d6000803e3d6000fd5b505050506040513d601f19601f82011682018060405250810190610abe9190612021565b905080610b00576040517f08c379a0000000000000000000000000000000000000000000000000000000008152600401610af7906127a4565b60405180910390fd5b7fdd9561054037fc839cbd1591c7d00e69c411681f9f3c8162ce4658946645eb7b3383604051610b319291906125a6565b60405180910390a160005b83811015610bba576003339080600181540180825580915050600190039060005260206000200160009091909190916101000a81548173ffffffffffffffffffffffffffffffffffffffff021916908373ffffffffffffffffffffffffffffffffffffffff1602179055508080610bb290612ac5565b915050610b3c565b5060006101f4905060006127108285610bd391906128fe565b610bdd91906128cd565b90508084610beb9190612958565b60066000828254610bfc9190612877565b925050819055508060056000828254610c159190612877565b925050819055505050505050565b610c2b61165f565b73ffffffffffffffffffffffffffffffffffffffff168173ffffffffffffffffffffffffffffffffffffffff1614610c98576040517f08c379a0000000000000000000000000000000000000000000000000000000008152600401610c8f90612784565b60405180910390fd5b610ca28282611738565b5050565b6000610cb0610e80565b73ffffffffffffffffffffffffffffffffffffffff163373ffffffffffffffffffffffffffffffffffffffff1614905090565b6000806000905060005b600380549050811015610db5573373ffffffffffffffffffffffffffffffffffffffff1660038281548110610d4b577f4e487b7100000000000000000000000000000000000000000000000000000000600052603260045260246000fd5b9060005260206000200160009054906101000a900473ffffffffffffffffffffffffffffffffffffffff1673ffffffffffffffffffffffffffffffffffffffff161415610da257600182610d9f9190612877565b91505b8080610dad90612ac5565b915050610ced565b508091505090565b6000610de97f241ecf16d79d0f8dbfb92cbc07fe17840425976cf0667f022fe9877caa831b0833610ed9565b905090565b610df661165f565b73ffffffffffffffffffffffffffffffffffffffff16610e14610e80565b73ffffffffffffffffffffffffffffffffffffffff1614610e6a576040517f08c379a0000000000000000000000000000000000000000000000000000000008152600401610e6190612764565b60405180910390fd5b610e74600061176c565b565b6000600454905090565b6000600260009054906101000a900473ffffffffffffffffffffffffffffffffffffffff16905090565b6000610ed1826001600086815260200190815260200160002061183290919063ffffffff16565b905092915050565b600080600084815260200190815260200160002060000160008373ffffffffffffffffffffffffffffffffffffffff1673ffffffffffffffffffffffffffffffffffffffff16815260200190815260200160002060009054906101000a900460ff16905092915050565b6000600654905090565b6000801b81565b6060610f5e61165f565b73ffffffffffffffffffffffffffffffffffffffff16610f7c610e80565b73ffffffffffffffffffffffffffffffffffffffff1614610fd2576040517f08c379a0000000000000000000000000000000000000000000000000000000008152600401610fc990612764565b60405180910390fd5b6000610ffd7f241ecf16d79d0f8dbfb92cbc07fe17840425976cf0667f022fe9877caa831b08611158565b67ffffffffffffffff81111561103c577f4e487b7100000000000000000000000000000000000000000000000000000000600052604160045260246000fd5b60405190808252806020026020018201604052801561106a5781602001602082028036833780820191505090505b50905060005b6110997f241ecf16d79d0f8dbfb92cbc07fe17840425976cf0667f022fe9877caa831b08611158565b811015611150576110ca7f241ecf16d79d0f8dbfb92cbc07fe17840425976cf0667f022fe9877caa831b0882610eaa565b828281518110611103577f4e487b7100000000000000000000000000000000000000000000000000000000600052603260045260246000fd5b602002602001019073ffffffffffffffffffffffffffffffffffffffff16908173ffffffffffffffffffffffffffffffffffffffff1681525050808061114890612ac5565b915050611070565b508091505090565b60006111756001600084815260200190815260200160002061184c565b9050919050565b61118582610853565b6111968161119161165f565b611667565b6111a08383611738565b505050565b7f241ecf16d79d0f8dbfb92cbc07fe17840425976cf0667f022fe9877caa831b0881565b6111d161165f565b73ffffffffffffffffffffffffffffffffffffffff166111ef610e80565b73ffffffffffffffffffffffffffffffffffffffff1614611245576040517f08c379a000000000000000000000000000000000000000000000000000000000815260040161123c90612764565b60405180910390fd5b600073ffffffffffffffffffffffffffffffffffffffff168173ffffffffffffffffffffffffffffffffffffffff1614156112b5576040517f08c379a00000000000000000000000000000000000000000000000000000000081526004016112ac906126a4565b60405180910390fd5b6112be8161176c565b50565b6112c961165f565b73ffffffffffffffffffffffffffffffffffffffff166112e7610e80565b73ffffffffffffffffffffffffffffffffffffffff161461133d576040517f08c379a000000000000000000000000000000000000000000000000000000000815260040161133490612764565b60405180910390fd5b6000600860009054906101000a900473ffffffffffffffffffffffffffffffffffffffff1673ffffffffffffffffffffffffffffffffffffffff1663a9059cbb836005546040518363ffffffff1660e01b815260040161139e9291906125a6565b602060405180830381600087803b1580156113b857600080fd5b505af11580156113cc573d6000803e3d6000fd5b505050506040513d601f19601f820116820180604052508101906113f09190612021565b905080611432576040517f08c379a000000000000000000000000000000000000000000000000000000000815260040161142990612684565b60405180910390fd5b60006005819055507f31528981b9aa7de7063ee4d17e0b80ff41aaf2b97820c0e4e6d746bbf9202cbd8260055460405161146d9291906125a6565b60405180910390a15050565b600860009054906101000a900473ffffffffffffffffffffffffffffffffffffffff1681565b6114a98282610ed9565b61157b57600160008084815260200190815260200160002060000160008373ffffffffffffffffffffffffffffffffffffffff1673ffffffffffffffffffffffffffffffffffffffff16815260200190815260200160002060006101000a81548160ff02191690831515021790555061152061165f565b73ffffffffffffffffffffffffffffffffffffffff168173ffffffffffffffffffffffffffffffffffffffff16837f2f8788117e7eff1d82e926ec794901d17c78024a50270940304540a733656f0d60405160405180910390a45b5050565b60006115a7836000018373ffffffffffffffffffffffffffffffffffffffff1660001b611861565b905092915050565b60007f7965db0b000000000000000000000000000000000000000000000000000000007bffffffffffffffffffffffffffffffffffffffffffffffffffffffff1916827bffffffffffffffffffffffffffffffffffffffffffffffffffffffff191614806116225750611621826118d1565b5b9050919050565b6000444260036040516020016116419392919061251b565b6040516020818303038152906040528051906020012060001c905090565b600033905090565b6116718282610ed9565b611700576116968173ffffffffffffffffffffffffffffffffffffffff16601461193b565b6116a48360001c602061193b565b6040516020016116b59291906124e1565b6040516020818303038152906040526040517f08c379a00000000000000000000000000000000000000000000000000000000081526004016116f79190612642565b60405180910390fd5b5050565b61170e828261149f565b611733816001600085815260200190815260200160002061157f90919063ffffffff16565b505050565b6117428282611c35565b6117678160016000858152602001908152602001600020611d1690919063ffffffff16565b505050565b6000600260009054906101000a900473ffffffffffffffffffffffffffffffffffffffff16905081600260006101000a81548173ffffffffffffffffffffffffffffffffffffffff021916908373ffffffffffffffffffffffffffffffffffffffff1602179055508173ffffffffffffffffffffffffffffffffffffffff168173ffffffffffffffffffffffffffffffffffffffff167f8be0079c531659141344cd1fd0a4f28419497f9722a3daafe3b4186f6b6457e060405160405180910390a35050565b60006118418360000183611d46565b60001c905092915050565b600061185a82600001611d97565b9050919050565b600061186d8383611da8565b6118c65782600001829080600181540180825580915050600190039060005260206000200160009091909190915055826000018054905083600101600084815260200190815260200160002081905550600190506118cb565b600090505b92915050565b60007f01ffc9a7000000000000000000000000000000000000000000000000000000007bffffffffffffffffffffffffffffffffffffffffffffffffffffffff1916827bffffffffffffffffffffffffffffffffffffffffffffffffffffffff1916149050919050565b60606000600283600261194e91906128fe565b6119589190612877565b67ffffffffffffffff811115611997577f4e487b7100000000000000000000000000000000000000000000000000000000600052604160045260246000fd5b6040519080825280601f01601f1916602001820160405280156119c95781602001600182028036833780820191505090505b5090507f300000000000000000000000000000000000000000000000000000000000000081600081518110611a27577f4e487b7100000000000000000000000000000000000000000000000000000000600052603260045260246000fd5b60200101907effffffffffffffffffffffffffffffffffffffffffffffffffffffffffffff1916908160001a9053507f780000000000000000000000000000000000000000000000000000000000000081600181518110611ab1577f4e487b7100000000000000000000000000000000000000000000000000000000600052603260045260246000fd5b60200101907effffffffffffffffffffffffffffffffffffffffffffffffffffffffffffff1916908160001a90535060006001846002611af191906128fe565b611afb9190612877565b90505b6001811115611be7577f3031323334353637383961626364656600000000000000000000000000000000600f861660108110611b63577f4e487b7100000000000000000000000000000000000000000000000000000000600052603260045260246000fd5b1a60f81b828281518110611ba0577f4e487b7100000000000000000000000000000000000000000000000000000000600052603260045260246000fd5b60200101907effffffffffffffffffffffffffffffffffffffffffffffffffffffffffffff1916908160001a905350600485901c945080611be090612a81565b9050611afe565b5060008414611c2b576040517f08c379a0000000000000000000000000000000000000000000000000000000008152600401611c2290612664565b60405180910390fd5b8091505092915050565b611c3f8282610ed9565b15611d1257600080600084815260200190815260200160002060000160008373ffffffffffffffffffffffffffffffffffffffff1673ffffffffffffffffffffffffffffffffffffffff16815260200190815260200160002060006101000a81548160ff021916908315150217905550611cb761165f565b73ffffffffffffffffffffffffffffffffffffffff168173ffffffffffffffffffffffffffffffffffffffff16837ff6391f5c32d9c69d2a47ea670b442974b53935d1edc7fd64eb21e047a839171b60405160405180910390a45b5050565b6000611d3e836000018373ffffffffffffffffffffffffffffffffffffffff1660001b611dcb565b905092915050565b6000826000018281548110611d84577f4e487b7100000000000000000000000000000000000000000000000000000000600052603260045260246000fd5b9060005260206000200154905092915050565b600081600001805490509050919050565b600080836001016000848152602001908152602001600020541415905092915050565b60008083600101600084815260200190815260200160002054905060008114611f45576000600182611dfd9190612958565b9050600060018660000180549050611e159190612958565b9050818114611ed0576000866000018281548110611e5c577f4e487b7100000000000000000000000000000000000000000000000000000000600052603260045260246000fd5b9060005260206000200154905080876000018481548110611ea6577f4e487b7100000000000000000000000000000000000000000000000000000000600052603260045260246000fd5b90600052602060002001819055508387600101600083815260200190815260200160002081905550505b85600001805480611f0a577f4e487b7100000000000000000000000000000000000000000000000000000000600052603160045260246000fd5b600190038181906000526020600020016000905590558560010160008681526020019081526020016000206000905560019350505050611f4b565b60009150505b92915050565b5080546000825590600052602060002090810190611f6f9190611f72565b50565b5b80821115611f8b576000816000905550600101611f73565b5090565b600081359050611f9e81612e39565b92915050565b600081519050611fb381612e50565b92915050565b600081359050611fc881612e67565b92915050565b600081359050611fdd81612e7e565b92915050565b600081359050611ff281612e95565b92915050565b60006020828403121561200a57600080fd5b600061201884828501611f8f565b91505092915050565b60006020828403121561203357600080fd5b600061204184828501611fa4565b91505092915050565b60006020828403121561205c57600080fd5b600061206a84828501611fb9565b91505092915050565b6000806040838503121561208657600080fd5b600061209485828601611fb9565b92505060206120a585828601611f8f565b9150509250929050565b600080604083850312156120c257600080fd5b60006120d085828601611fb9565b92505060206120e185828601611fe3565b9150509250929050565b6000602082840312156120fd57600080fd5b600061210b84828501611fce565b91505092915050565b60006020828403121561212657600080fd5b600061213484828501611fe3565b91505092915050565b6000612149838361216d565b60208301905092915050565b6000612161838361218b565b60208301905092915050565b612176816129ac565b82525050565b612185816129ac565b82525050565b612194816129ac565b82525050565b60006121a582612804565b6121af818561283f565b93506121ba836127df565b8060005b838110156121eb5781516121d2888261213d565b97506121dd83612825565b9250506001810190506121be565b5085935050505092915050565b60006122038261280f565b61220d8185612850565b9350612218836127ef565b8060005b838110156122505761222d82612ba7565b6122378882612155565b975061224283612832565b92505060018101905061221c565b5085935050505092915050565b612266816129be565b82525050565b612275816129ca565b82525050565b61228481612a2a565b82525050565b60006122958261281a565b61229f818561285b565b93506122af818560208601612a4e565b6122b881612bba565b840191505092915050565b60006122ce8261281a565b6122d8818561286c565b93506122e8818560208601612a4e565b80840191505092915050565b600061230160208361285b565b915061230c82612bd8565b602082019050919050565b600061232460158361285b565b915061232f82612c01565b602082019050919050565b600061234760268361285b565b915061235282612c2a565b604082019050919050565b600061236a601c8361285b565b915061237582612c79565b602082019050919050565b600061238d600a8361285b565b915061239882612ca2565b602082019050919050565b60006123b060118361285b565b91506123bb82612ccb565b602082019050919050565b60006123d360208361285b565b91506123de82612cf4565b602082019050919050565b60006123f660108361285b565b915061240182612d1d565b602082019050919050565b600061241960208361285b565b915061242482612d46565b602082019050919050565b600061243c60178361286c565b915061244782612d6f565b601782019050919050565b600061245f60118361286c565b915061246a82612d98565b601182019050919050565b6000612482602f8361285b565b915061248d82612dc1565b604082019050919050565b60006124a560198361285b565b91506124b082612e10565b602082019050919050565b6124c481612a20565b82525050565b6124db6124d682612a20565b612b0e565b82525050565b60006124ec8261242f565b91506124f882856122c3565b915061250382612452565b915061250f82846122c3565b91508190509392505050565b600061252782866124ca565b60208201915061253782856124ca565b60208201915061254782846121f8565b9150819050949350505050565b6000602082019050612569600083018461217c565b92915050565b6000606082019050612584600083018661217c565b612591602083018561217c565b61259e60408301846124bb565b949350505050565b60006040820190506125bb600083018561217c565b6125c860208301846124bb565b9392505050565b600060208201905081810360008301526125e9818461219a565b905092915050565b6000602082019050612606600083018461225d565b92915050565b6000602082019050612621600083018461226c565b92915050565b600060208201905061263c600083018461227b565b92915050565b6000602082019050818103600083015261265c818461228a565b905092915050565b6000602082019050818103600083015261267d816122f4565b9050919050565b6000602082019050818103600083015261269d81612317565b9050919050565b600060208201905081810360008301526126bd8161233a565b9050919050565b600060208201905081810360008301526126dd8161235d565b9050919050565b600060208201905081810360008301526126fd81612380565b9050919050565b6000602082019050818103600083015261271d816123a3565b9050919050565b6000602082019050818103600083015261273d816123c6565b9050919050565b6000602082019050818103600083015261275d816123e9565b9050919050565b6000602082019050818103600083015261277d8161240c565b9050919050565b6000602082019050818103600083015261279d81612475565b9050919050565b600060208201905081810360008301526127bd81612498565b9050919050565b60006020820190506127d960008301846124bb565b92915050565b6000819050602082019050919050565b60008190508160005260206000209050919050565b600081519050919050565b600081549050919050565b600081519050919050565b6000602082019050919050565b6000600182019050919050565b600082825260208201905092915050565b600081905092915050565b600082825260208201905092915050565b600081905092915050565b600061288282612a20565b915061288d83612a20565b9250827fffffffffffffffffffffffffffffffffffffffffffffffffffffffffffffffff038211156128c2576128c1612b49565b5b828201905092915050565b60006128d882612a20565b91506128e383612a20565b9250826128f3576128f2612b78565b5b828204905092915050565b600061290982612a20565b915061291483612a20565b9250817fffffffffffffffffffffffffffffffffffffffffffffffffffffffffffffffff048311821515161561294d5761294c612b49565b5b828202905092915050565b600061296382612a20565b915061296e83612a20565b92508282101561298157612980612b49565b5b828203905092915050565b600073ffffffffffffffffffffffffffffffffffffffff82169050919050565b60006129b782612a00565b9050919050565b60008115159050919050565b6000819050919050565b60007fffffffff0000000000000000000000000000000000000000000000000000000082169050919050565b600073ffffffffffffffffffffffffffffffffffffffff82169050919050565b6000819050919050565b6000612a3582612a3c565b9050919050565b6000612a4782612a00565b9050919050565b60005b83811015612a6c578082015181840152602081019050612a51565b83811115612a7b576000848401525b50505050565b6000612a8c82612a20565b91506000821415612aa057612a9f612b49565b5b600182039050919050565b6000612abe612ab983612bcb565b61298c565b9050919050565b6000612ad082612a20565b91507fffffffffffffffffffffffffffffffffffffffffffffffffffffffffffffffff821415612b0357612b02612b49565b5b600182019050919050565b6000819050919050565b6000612b2382612a20565b9150612b2e83612a20565b925082612b3e57612b3d612b78565b5b828206905092915050565b7f4e487b7100000000000000000000000000000000000000000000000000000000600052601160045260246000fd5b7f4e487b7100000000000000000000000000000000000000000000000000000000600052601260045260246000fd5b6000612bb38254612aab565b9050919050565b6000601f19601f8301169050919050565b60008160001c9050919050565b7f537472696e67733a20686578206c656e67746820696e73756666696369656e74600082015250565b7f6572726f7220647572696e67207472616e736665720000000000000000000000600082015250565b7f4f776e61626c653a206e6577206f776e657220697320746865207a65726f206160008201527f6464726573730000000000000000000000000000000000000000000000000000602082015250565b7f6e6565642035206d696e75746573206265747765656e20647261777300000000600082015250565b7f6e6f207469636b65747300000000000000000000000000000000000000000000600082015250565b7f746f6f206d616e79206d616e6167657273000000000000000000000000000000600082015250565b7f6d73672e73656e646572206d757374206265206f776e65722f6d616e61676572600082015250565b7f7a65726f207469636b6574436f756e7400000000000000000000000000000000600082015250565b7f4f776e61626c653a2063616c6c6572206973206e6f7420746865206f776e6572600082015250565b7f416363657373436f6e74726f6c3a206163636f756e7420000000000000000000600082015250565b7f206973206d697373696e6720726f6c6520000000000000000000000000000000600082015250565b7f416363657373436f6e74726f6c3a2063616e206f6e6c792072656e6f756e636560008201527f20726f6c657320666f722073656c660000000000000000000000000000000000602082015250565b7f6572726f7220647572696e67207472616e7366657246726f6d00000000000000600082015250565b612e42816129ac565b8114612e4d57600080fd5b50565b612e59816129be565b8114612e6457600080fd5b50565b612e70816129ca565b8114612e7b57600080fd5b50565b612e87816129d4565b8114612e9257600080fd5b50565b612e9e81612a20565b8114612ea957600080fd5b5056fea26469706673582212204b98d7d3324b5d2d7aec0d142b3f5a033a2ae26123f2ca6655da12216cb6a4b264736f6c63430008040033",
  "linkReferences": {},
  "deployedLinkReferences": {}
}