{
  "_format": "hh-sol-artifact-1",
  "contractName": "Lottery",
  "sourceName": "contracts/Lottery.sol",
  "abi": [
    {
      "inputs": [
        {
          "internalType": "contract IERC20",
          "name": "mockTokenAddress",
          "type": "address"
        }
      ],
      "stateMutability": "nonpayable",
      "type": "constructor"
    },
    {
      "anonymous": false,
      "inputs": [
        {
          "indexed": false,
          "internalType": "address",
          "name": "",
          "type": "address"
        },
        {
          "indexed": false,
          "internalType": "uint256",
          "name": "",
          "type": "uint256"
        }
      ],
      "name": "Incoming",
      "type": "event"
    },
    {
      "anonymous": false,
      "inputs": [
        {
          "indexed": false,
          "internalType": "address",
          "name": "",
          "type": "address"
        },
        {
          "indexed": false,
          "internalType": "uint256",
          "name": "",
          "type": "uint256"
        }
      ],
      "name": "Outgoing",
      "type": "event"
    },
    {
      "anonymous": false,
      "inputs": [
        {
          "indexed": true,
          "internalType": "address",
          "name": "previousOwner",
          "type": "address"
        },
        {
          "indexed": true,
          "internalType": "address",
          "name": "newOwner",
          "type": "address"
        }
      ],
      "name": "OwnershipTransferred",
      "type": "event"
    },
    {
      "anonymous": false,
      "inputs": [
        {
          "indexed": true,
          "internalType": "bytes32",
          "name": "role",
          "type": "bytes32"
        },
        {
          "indexed": true,
          "internalType": "bytes32",
          "name": "previousAdminRole",
          "type": "bytes32"
        },
        {
          "indexed": true,
          "internalType": "bytes32",
          "name": "newAdminRole",
          "type": "bytes32"
        }
      ],
      "name": "RoleAdminChanged",
      "type": "event"
    },
    {
      "anonymous": false,
      "inputs": [
        {
          "indexed": true,
          "internalType": "bytes32",
          "name": "role",
          "type": "bytes32"
        },
        {
          "indexed": true,
          "internalType": "address",
          "name": "account",
          "type": "address"
        },
        {
          "indexed": true,
          "internalType": "address",
          "name": "sender",
          "type": "address"
        }
      ],
      "name": "RoleGranted",
      "type": "event"
    },
    {
      "anonymous": false,
      "inputs": [
        {
          "indexed": true,
          "internalType": "bytes32",
          "name": "role",
          "type": "bytes32"
        },
        {
          "indexed": true,
          "internalType": "address",
          "name": "account",
          "type": "address"
        },
        {
          "indexed": true,
          "internalType": "address",
          "name": "sender",
          "type": "address"
        }
      ],
      "name": "RoleRevoked",
      "type": "event"
    },
    {
      "inputs": [],
      "name": "DEFAULT_ADMIN_ROLE",
      "outputs": [
        {
          "internalType": "bytes32",
          "name": "",
          "type": "bytes32"
        }
      ],
      "stateMutability": "view",
      "type": "function"
    },
    {
      "inputs": [],
      "name": "MANAGER_ROLE",
      "outputs": [
        {
          "internalType": "bytes32",
          "name": "",
          "type": "bytes32"
        }
      ],
      "stateMutability": "view",
      "type": "function"
    },
    {
      "inputs": [
        {
          "internalType": "address",
          "name": "managerAddress",
          "type": "address"
        }
      ],
      "name": "addManager",
      "outputs": [],
      "stateMutability": "nonpayable",
      "type": "function"
    },
    {
      "inputs": [],
      "name": "amIManager",
      "outputs": [
        {
          "internalType": "bool",
          "name": "",
          "type": "bool"
        }
      ],
      "stateMutability": "view",
      "type": "function"
    },
    {
      "inputs": [],
      "name": "amIOwner",
      "outputs": [
        {
          "internalType": "bool",
          "name": "",
          "type": "bool"
        }
      ],
      "stateMutability": "view",
      "type": "function"
    },
    {
      "inputs": [
        {
          "internalType": "uint256",
          "name": "ticketCount",
          "type": "uint256"
        }
      ],
      "name": "buyTickets",
      "outputs": [],
      "stateMutability": "nonpayable",
      "type": "function"
    },
    {
      "inputs": [
        {
          "internalType": "address",
          "name": "managerAddress",
          "type": "address"
        }
      ],
      "name": "deleteManager",
      "outputs": [],
      "stateMutability": "nonpayable",
      "type": "function"
    },
    {
      "inputs": [],
      "name": "draw",
      "outputs": [],
      "stateMutability": "nonpayable",
      "type": "function"
    },
    {
      "inputs": [],
      "name": "getFeeTotal",
      "outputs": [
        {
          "internalType": "uint256",
          "name": "",
          "type": "uint256"
        }
      ],
      "stateMutability": "view",
      "type": "function"
    },
    {
      "inputs": [],
      "name": "getManagers",
      "outputs": [
        {
          "internalType": "address[]",
          "name": "",
          "type": "address[]"
        }
      ],
      "stateMutability": "view",
      "type": "function"
    },
    {
      "inputs": [],
      "name": "getPrizeTotal",
      "outputs": [
        {
          "internalType": "uint256",
          "name": "",
          "type": "uint256"
        }
      ],
      "stateMutability": "view",
      "type": "function"
    },
    {
      "inputs": [
        {
          "internalType": "bytes32",
          "name": "role",
          "type": "bytes32"
        }
      ],
      "name": "getRoleAdmin",
      "outputs": [
        {
          "internalType": "bytes32",
          "name": "",
          "type": "bytes32"
        }
      ],
      "stateMutability": "view",
      "type": "function"
    },
    {
      "inputs": [
        {
          "internalType": "bytes32",
          "name": "role",
          "type": "bytes32"
        },
        {
          "internalType": "uint256",
          "name": "index",
          "type": "uint256"
        }
      ],
      "name": "getRoleMember",
      "outputs": [
        {
          "internalType": "address",
          "name": "",
          "type": "address"
        }
      ],
      "stateMutability": "view",
      "type": "function"
    },
    {
      "inputs": [
        {
          "internalType": "bytes32",
          "name": "role",
          "type": "bytes32"
        }
      ],
      "name": "getRoleMemberCount",
      "outputs": [
        {
          "internalType": "uint256",
          "name": "",
          "type": "uint256"
        }
      ],
      "stateMutability": "view",
      "type": "function"
    },
    {
      "inputs": [],
      "name": "getTicketPrice",
      "outputs": [
        {
          "internalType": "uint256",
          "name": "",
          "type": "uint256"
        }
      ],
      "stateMutability": "view",
      "type": "function"
    },
    {
      "inputs": [],
      "name": "getTickets",
      "outputs": [
        {
          "internalType": "uint256",
          "name": "",
          "type": "uint256"
        }
      ],
      "stateMutability": "view",
      "type": "function"
    },
    {
      "inputs": [
        {
          "internalType": "bytes32",
          "name": "role",
          "type": "bytes32"
        },
        {
          "internalType": "address",
          "name": "account",
          "type": "address"
        }
      ],
      "name": "grantRole",
      "outputs": [],
      "stateMutability": "nonpayable",
      "type": "function"
    },
    {
      "inputs": [
        {
          "internalType": "bytes32",
          "name": "role",
          "type": "bytes32"
        },
        {
          "internalType": "address",
          "name": "account",
          "type": "address"
        }
      ],
      "name": "hasRole",
      "outputs": [
        {
          "internalType": "bool",
          "name": "",
          "type": "bool"
        }
      ],
      "stateMutability": "view",
      "type": "function"
    },
    {
      "inputs": [],
      "name": "owner",
      "outputs": [
        {
          "internalType": "address",
          "name": "",
          "type": "address"
        }
      ],
      "stateMutability": "view",
      "type": "function"
    },
    {
      "inputs": [
        {
          "internalType": "address",
          "name": "recipient",
          "type": "address"
        }
      ],
      "name": "ownerWithdraw",
      "outputs": [],
      "stateMutability": "nonpayable",
      "type": "function"
    },
    {
      "inputs": [],
      "name": "renounceOwnership",
      "outputs": [],
      "stateMutability": "nonpayable",
      "type": "function"
    },
    {
      "inputs": [
        {
          "internalType": "bytes32",
          "name": "role",
          "type": "bytes32"
        },
        {
          "internalType": "address",
          "name": "account",
          "type": "address"
        }
      ],
      "name": "renounceRole",
      "outputs": [],
      "stateMutability": "nonpayable",
      "type": "function"
    },
    {
      "inputs": [
        {
          "internalType": "bytes32",
          "name": "role",
          "type": "bytes32"
        },
        {
          "internalType": "address",
          "name": "account",
          "type": "address"
        }
      ],
      "name": "revokeRole",
      "outputs": [],
      "stateMutability": "nonpayable",
      "type": "function"
    },
    {
      "inputs": [
        {
          "internalType": "uint256",
          "name": "targetTicketPrice",
          "type": "uint256"
        }
      ],
      "name": "setTicketPrice",
      "outputs": [],
      "stateMutability": "nonpayable",
      "type": "function"
    },
    {
      "inputs": [
        {
          "internalType": "bytes4",
          "name": "interfaceId",
          "type": "bytes4"
        }
      ],
      "name": "supportsInterface",
      "outputs": [
        {
          "internalType": "bool",
          "name": "",
          "type": "bool"
        }
      ],
      "stateMutability": "view",
      "type": "function"
    },
    {
      "inputs": [],
      "name": "token",
      "outputs": [
        {
          "internalType": "contract IERC20",
          "name": "",
          "type": "address"
        }
      ],
      "stateMutability": "view",
      "type": "function"
    },
    {
      "inputs": [
        {
          "internalType": "address",
          "name": "newOwner",
          "type": "address"
        }
      ],
      "name": "transferOwnership",
      "outputs": [],
      "stateMutability": "nonpayable",
      "type": "function"
    }
  ],
  "bytecode": "0x60806040523480156200001157600080fd5b506040516200361938038062003619833981810160405281019062000037919062000486565b620000576200004b620000e960201b60201c565b620000f160201b60201c565b80600860006101000a81548173ffffffffffffffffffffffffffffffffffffffff021916908373ffffffffffffffffffffffffffffffffffffffff1602179055506801158e460913d0000060048190555061012c42620000b89190620004b2565b600781905550620000e26000801b620000d6620001b760201b60201c565b620001e160201b60201c565b5062000588565b600033905090565b6000600260009054906101000a900473ffffffffffffffffffffffffffffffffffffffff16905081600260006101000a81548173ffffffffffffffffffffffffffffffffffffffff021916908373ffffffffffffffffffffffffffffffffffffffff1602179055508173ffffffffffffffffffffffffffffffffffffffff168173ffffffffffffffffffffffffffffffffffffffff167f8be0079c531659141344cd1fd0a4f28419497f9722a3daafe3b4186f6b6457e060405160405180910390a35050565b6000600260009054906101000a900473ffffffffffffffffffffffffffffffffffffffff16905090565b620001f38282620001f760201b60201c565b5050565b6200020e82826200023f60201b6200163e1760201c565b6200023a81600160008581526020019081526020016000206200033060201b6200171e1790919060201c565b505050565b6200025182826200036860201b60201c565b6200032c57600160008084815260200190815260200160002060000160008373ffffffffffffffffffffffffffffffffffffffff1673ffffffffffffffffffffffffffffffffffffffff16815260200190815260200160002060006101000a81548160ff021916908315150217905550620002d1620000e960201b60201c565b73ffffffffffffffffffffffffffffffffffffffff168173ffffffffffffffffffffffffffffffffffffffff16837f2f8788117e7eff1d82e926ec794901d17c78024a50270940304540a733656f0d60405160405180910390a45b5050565b600062000360836000018373ffffffffffffffffffffffffffffffffffffffff1660001b620003d260201b60201c565b905092915050565b600080600084815260200190815260200160002060000160008373ffffffffffffffffffffffffffffffffffffffff1673ffffffffffffffffffffffffffffffffffffffff16815260200190815260200160002060009054906101000a900460ff16905092915050565b6000620003e683836200044c60201b60201c565b6200044157826000018290806001815401808255809150506001900390600052602060002001600090919091909150558260000180549050836001016000848152602001908152602001600020819055506001905062000446565b600090505b92915050565b600080836001016000848152602001908152602001600020541415905092915050565b60008151905062000480816200056e565b92915050565b6000602082840312156200049957600080fd5b6000620004a9848285016200046f565b91505092915050565b6000620004bf8262000535565b9150620004cc8362000535565b925082821015620004e257620004e16200053f565b5b828203905092915050565b6000620004fa8262000515565b9050919050565b60006200050e82620004ed565b9050919050565b600073ffffffffffffffffffffffffffffffffffffffff82169050919050565b6000819050919050565b7f4e487b7100000000000000000000000000000000000000000000000000000000600052601160045260246000fd5b620005798162000501565b81146200058557600080fd5b50565b61308180620005986000396000f3fe608060405234801561001057600080fd5b50600436106101a95760003560e01c806387bb7ae0116100f9578063a8d088bb11610097578063ec87621c11610071578063ec87621c14610484578063f2fde38b146104a2578063f9bfaa7d146104be578063fc0c546a146104da576101a9565b8063a8d088bb1461041a578063ca15c87314610438578063d547741f14610468576101a9565b806391d14854116100d357806391d148541461039257806396799760146103c25780639f70ede2146103de578063a217fddf146103fc576101a9565b806387bb7ae0146103265780638da5cb5b146103445780639010d07c14610362576101a9565b80632f2ff15d116101665780634e4ab830116101405780634e4ab830146102c25780634ed02622146102e05780635c8dce64146102fe578063715018a61461031c576101a9565b80632f2ff15d1461026e5780632f3666371461028a57806336568abe146102a6576101a9565b806301ffc9a7146101ae5780630eecae21146101de57806315981650146101e8578063248a9ca3146102045780632c8d1099146102345780632d06177a14610252575b600080fd5b6101c860048036038101906101c3919061228a565b6104f8565b6040516101d59190612790565b60405180910390f35b6101e6610572565b005b61020260048036038101906101fd91906122b3565b61083d565b005b61021e600480360381019061021991906121e9565b6108c3565b60405161022b91906127ab565b60405180910390f35b61023c6108e2565b6040516102499190612963565b60405180910390f35b61026c60048036038101906102679190612197565b610968565b005b61028860048036038101906102839190612212565b610a82565b005b6102a4600480360381019061029f91906122b3565b610aab565b005b6102c060048036038101906102bb9190612212565b610d19565b005b6102ca610d9c565b6040516102d79190612790565b60405180910390f35b6102e8610dd9565b6040516102f59190612963565b60405180910390f35b610306610eb3565b6040516103139190612790565b60405180910390f35b610324610ee4565b005b61032e610f6c565b60405161033b9190612963565b60405180910390f35b61034c610f76565b60405161035991906126f3565b60405180910390f35b61037c6004803603810190610377919061224e565b610fa0565b60405161038991906126f3565b60405180910390f35b6103ac60048036038101906103a79190612212565b610fcf565b6040516103b99190612790565b60405180910390f35b6103dc60048036038101906103d79190612197565b611039565b005b6103e66110e2565b6040516103f39190612963565b60405180910390f35b6104046110ec565b60405161041191906127ab565b60405180910390f35b6104226110f3565b60405161042f919061276e565b60405180910390f35b610452600480360381019061044d91906121e9565b6112f7565b60405161045f9190612963565b60405180910390f35b610482600480360381019061047d9190612212565b61131b565b005b61048c611344565b60405161049991906127ab565b60405180910390f35b6104bc60048036038101906104b79190612197565b611368565b005b6104d860048036038101906104d39190612197565b611460565b005b6104e2611618565b6040516104ef91906127c6565b60405180910390f35b60007f5a05180f000000000000000000000000000000000000000000000000000000007bffffffffffffffffffffffffffffffffffffffffffffffffffffffff1916827bffffffffffffffffffffffffffffffffffffffffffffffffffffffff1916148061056b575061056a8261174e565b5b9050919050565b61057a610f76565b73ffffffffffffffffffffffffffffffffffffffff163373ffffffffffffffffffffffffffffffffffffffff1614806105d957506105d87f241ecf16d79d0f8dbfb92cbc07fe17840425976cf0667f022fe9877caa831b0833610fcf565b5b610618576040517f08c379a000000000000000000000000000000000000000000000000000000000815260040161060f906128c3565b60405180910390fd5b600060038054905011610660576040517f08c379a000000000000000000000000000000000000000000000000000000000815260040161065790612883565b60405180910390fd5b61012c6007546106709190612a16565b42116106b1576040517f08c379a00000000000000000000000000000000000000000000000000000000081526004016106a890612863565b60405180910390fd5b6000600380805490506106c26117c8565b6106cc9190612cb7565b81548110610703577f4e487b7100000000000000000000000000000000000000000000000000000000600052603260045260246000fd5b9060005260206000200160009054906101000a900473ffffffffffffffffffffffffffffffffffffffff169050600860009054906101000a900473ffffffffffffffffffffffffffffffffffffffff1673ffffffffffffffffffffffffffffffffffffffff1663a9059cbb826006546040518363ffffffff1660e01b815260040161078f929190612745565b602060405180830381600087803b1580156107a957600080fd5b505af11580156107bd573d6000803e3d6000fd5b505050506040513d601f19601f820116820180604052508101906107e191906121c0565b507f31528981b9aa7de7063ee4d17e0b80ff41aaf2b97820c0e4e6d746bbf9202cbd81600654604051610815929190612745565b60405180910390a16003600061082b91906120f0565b42600781905550600060068190555050565b6108456117fe565b73ffffffffffffffffffffffffffffffffffffffff16610863610f76565b73ffffffffffffffffffffffffffffffffffffffff16146108b9576040517f08c379a00000000000000000000000000000000000000000000000000000000081526004016108b090612903565b60405180910390fd5b8060048190555050565b6000806000838152602001908152602001600020600101549050919050565b60006108ec6117fe565b73ffffffffffffffffffffffffffffffffffffffff1661090a610f76565b73ffffffffffffffffffffffffffffffffffffffff1614610960576040517f08c379a000000000000000000000000000000000000000000000000000000000815260040161095790612903565b60405180910390fd5b600554905090565b6109706117fe565b73ffffffffffffffffffffffffffffffffffffffff1661098e610f76565b73ffffffffffffffffffffffffffffffffffffffff16146109e4576040517f08c379a00000000000000000000000000000000000000000000000000000000081526004016109db90612903565b60405180910390fd5b6000610a0f7f241ecf16d79d0f8dbfb92cbc07fe17840425976cf0667f022fe9877caa831b086112f7565b905060028110610a54576040517f08c379a0000000000000000000000000000000000000000000000000000000008152600401610a4b906128a3565b60405180910390fd5b610a7e7f241ecf16d79d0f8dbfb92cbc07fe17840425976cf0667f022fe9877caa831b0883610a82565b5050565b610a8b826108c3565b610a9c81610a976117fe565b611806565b610aa683836118a3565b505050565b6000811415610aef576040517f08c379a0000000000000000000000000000000000000000000000000000000008152600401610ae6906128e3565b60405180910390fd5b600060045482610aff9190612a9d565b90506000600860009054906101000a900473ffffffffffffffffffffffffffffffffffffffff1673ffffffffffffffffffffffffffffffffffffffff166323b872dd3330856040518463ffffffff1660e01b8152600401610b629392919061270e565b602060405180830381600087803b158015610b7c57600080fd5b505af1158015610b90573d6000803e3d6000fd5b505050506040513d601f19601f82011682018060405250810190610bb491906121c0565b905080610bf6576040517f08c379a0000000000000000000000000000000000000000000000000000000008152600401610bed90612943565b60405180910390fd5b7fdd9561054037fc839cbd1591c7d00e69c411681f9f3c8162ce4658946645eb7b3383604051610c27929190612745565b60405180910390a160005b83811015610cb0576003339080600181540180825580915050600190039060005260206000200160009091909190916101000a81548173ffffffffffffffffffffffffffffffffffffffff021916908373ffffffffffffffffffffffffffffffffffffffff1602179055508080610ca890612c64565b915050610c32565b5060006101f4905060006127108285610cc99190612a9d565b610cd39190612a6c565b90508084610ce19190612af7565b60066000828254610cf29190612a16565b925050819055508060056000828254610d0b9190612a16565b925050819055505050505050565b610d216117fe565b73ffffffffffffffffffffffffffffffffffffffff168173ffffffffffffffffffffffffffffffffffffffff1614610d8e576040517f08c379a0000000000000000000000000000000000000000000000000000000008152600401610d8590612923565b60405180910390fd5b610d9882826118d7565b5050565b6000610da6610f76565b73ffffffffffffffffffffffffffffffffffffffff163373ffffffffffffffffffffffffffffffffffffffff1614905090565b6000806000905060005b600380549050811015610eab573373ffffffffffffffffffffffffffffffffffffffff1660038281548110610e41577f4e487b7100000000000000000000000000000000000000000000000000000000600052603260045260246000fd5b9060005260206000200160009054906101000a900473ffffffffffffffffffffffffffffffffffffffff1673ffffffffffffffffffffffffffffffffffffffff161415610e9857600182610e959190612a16565b91505b8080610ea390612c64565b915050610de3565b508091505090565b6000610edf7f241ecf16d79d0f8dbfb92cbc07fe17840425976cf0667f022fe9877caa831b0833610fcf565b905090565b610eec6117fe565b73ffffffffffffffffffffffffffffffffffffffff16610f0a610f76565b73ffffffffffffffffffffffffffffffffffffffff1614610f60576040517f08c379a0000000000000000000000000000000000000000000000000000000008152600401610f5790612903565b60405180910390fd5b610f6a600061190b565b565b6000600454905090565b6000600260009054906101000a900473ffffffffffffffffffffffffffffffffffffffff16905090565b6000610fc782600160008681526020019081526020016000206119d190919063ffffffff16565b905092915050565b600080600084815260200190815260200160002060000160008373ffffffffffffffffffffffffffffffffffffffff1673ffffffffffffffffffffffffffffffffffffffff16815260200190815260200160002060009054906101000a900460ff16905092915050565b6110416117fe565b73ffffffffffffffffffffffffffffffffffffffff1661105f610f76565b73ffffffffffffffffffffffffffffffffffffffff16146110b5576040517f08c379a00000000000000000000000000000000000000000000000000000000081526004016110ac90612903565b60405180910390fd5b6110df7f241ecf16d79d0f8dbfb92cbc07fe17840425976cf0667f022fe9877caa831b088261131b565b50565b6000600654905090565b6000801b81565b60606110fd6117fe565b73ffffffffffffffffffffffffffffffffffffffff1661111b610f76565b73ffffffffffffffffffffffffffffffffffffffff1614611171576040517f08c379a000000000000000000000000000000000000000000000000000000000815260040161116890612903565b60405180910390fd5b600061119c7f241ecf16d79d0f8dbfb92cbc07fe17840425976cf0667f022fe9877caa831b086112f7565b67ffffffffffffffff8111156111db577f4e487b7100000000000000000000000000000000000000000000000000000000600052604160045260246000fd5b6040519080825280602002602001820160405280156112095781602001602082028036833780820191505090505b50905060005b6112387f241ecf16d79d0f8dbfb92cbc07fe17840425976cf0667f022fe9877caa831b086112f7565b8110156112ef576112697f241ecf16d79d0f8dbfb92cbc07fe17840425976cf0667f022fe9877caa831b0882610fa0565b8282815181106112a2577f4e487b7100000000000000000000000000000000000000000000000000000000600052603260045260246000fd5b602002602001019073ffffffffffffffffffffffffffffffffffffffff16908173ffffffffffffffffffffffffffffffffffffffff168152505080806112e790612c64565b91505061120f565b508091505090565b6000611314600160008481526020019081526020016000206119eb565b9050919050565b611324826108c3565b611335816113306117fe565b611806565b61133f83836118d7565b505050565b7f241ecf16d79d0f8dbfb92cbc07fe17840425976cf0667f022fe9877caa831b0881565b6113706117fe565b73ffffffffffffffffffffffffffffffffffffffff1661138e610f76565b73ffffffffffffffffffffffffffffffffffffffff16146113e4576040517f08c379a00000000000000000000000000000000000000000000000000000000081526004016113db90612903565b60405180910390fd5b600073ffffffffffffffffffffffffffffffffffffffff168173ffffffffffffffffffffffffffffffffffffffff161415611454576040517f08c379a000000000000000000000000000000000000000000000000000000000815260040161144b90612843565b60405180910390fd5b61145d8161190b565b50565b6114686117fe565b73ffffffffffffffffffffffffffffffffffffffff16611486610f76565b73ffffffffffffffffffffffffffffffffffffffff16146114dc576040517f08c379a00000000000000000000000000000000000000000000000000000000081526004016114d390612903565b60405180910390fd5b6000600860009054906101000a900473ffffffffffffffffffffffffffffffffffffffff1673ffffffffffffffffffffffffffffffffffffffff1663a9059cbb836005546040518363ffffffff1660e01b815260040161153d929190612745565b602060405180830381600087803b15801561155757600080fd5b505af115801561156b573d6000803e3d6000fd5b505050506040513d601f19601f8201168201806040525081019061158f91906121c0565b9050806115d1576040517f08c379a00000000000000000000000000000000000000000000000000000000081526004016115c890612823565b60405180910390fd5b60006005819055507f31528981b9aa7de7063ee4d17e0b80ff41aaf2b97820c0e4e6d746bbf9202cbd8260055460405161160c929190612745565b60405180910390a15050565b600860009054906101000a900473ffffffffffffffffffffffffffffffffffffffff1681565b6116488282610fcf565b61171a57600160008084815260200190815260200160002060000160008373ffffffffffffffffffffffffffffffffffffffff1673ffffffffffffffffffffffffffffffffffffffff16815260200190815260200160002060006101000a81548160ff0219169083151502179055506116bf6117fe565b73ffffffffffffffffffffffffffffffffffffffff168173ffffffffffffffffffffffffffffffffffffffff16837f2f8788117e7eff1d82e926ec794901d17c78024a50270940304540a733656f0d60405160405180910390a45b5050565b6000611746836000018373ffffffffffffffffffffffffffffffffffffffff1660001b611a00565b905092915050565b60007f7965db0b000000000000000000000000000000000000000000000000000000007bffffffffffffffffffffffffffffffffffffffffffffffffffffffff1916827bffffffffffffffffffffffffffffffffffffffffffffffffffffffff191614806117c157506117c082611a70565b5b9050919050565b6000444260036040516020016117e0939291906126ba565b6040516020818303038152906040528051906020012060001c905090565b600033905090565b6118108282610fcf565b61189f576118358173ffffffffffffffffffffffffffffffffffffffff166014611ada565b6118438360001c6020611ada565b604051602001611854929190612680565b6040516020818303038152906040526040517f08c379a000000000000000000000000000000000000000000000000000000000815260040161189691906127e1565b60405180910390fd5b5050565b6118ad828261163e565b6118d2816001600085815260200190815260200160002061171e90919063ffffffff16565b505050565b6118e18282611dd4565b6119068160016000858152602001908152602001600020611eb590919063ffffffff16565b505050565b6000600260009054906101000a900473ffffffffffffffffffffffffffffffffffffffff16905081600260006101000a81548173ffffffffffffffffffffffffffffffffffffffff021916908373ffffffffffffffffffffffffffffffffffffffff1602179055508173ffffffffffffffffffffffffffffffffffffffff168173ffffffffffffffffffffffffffffffffffffffff167f8be0079c531659141344cd1fd0a4f28419497f9722a3daafe3b4186f6b6457e060405160405180910390a35050565b60006119e08360000183611ee5565b60001c905092915050565b60006119f982600001611f36565b9050919050565b6000611a0c8383611f47565b611a65578260000182908060018154018082558091505060019003906000526020600020016000909190919091505582600001805490508360010160008481526020019081526020016000208190555060019050611a6a565b600090505b92915050565b60007f01ffc9a7000000000000000000000000000000000000000000000000000000007bffffffffffffffffffffffffffffffffffffffffffffffffffffffff1916827bffffffffffffffffffffffffffffffffffffffffffffffffffffffff1916149050919050565b606060006002836002611aed9190612a9d565b611af79190612a16565b67ffffffffffffffff811115611b36577f4e487b7100000000000000000000000000000000000000000000000000000000600052604160045260246000fd5b6040519080825280601f01601f191660200182016040528015611b685781602001600182028036833780820191505090505b5090507f300000000000000000000000000000000000000000000000000000000000000081600081518110611bc6577f4e487b7100000000000000000000000000000000000000000000000000000000600052603260045260246000fd5b60200101907effffffffffffffffffffffffffffffffffffffffffffffffffffffffffffff1916908160001a9053507f780000000000000000000000000000000000000000000000000000000000000081600181518110611c50577f4e487b7100000000000000000000000000000000000000000000000000000000600052603260045260246000fd5b60200101907effffffffffffffffffffffffffffffffffffffffffffffffffffffffffffff1916908160001a90535060006001846002611c909190612a9d565b611c9a9190612a16565b90505b6001811115611d86577f3031323334353637383961626364656600000000000000000000000000000000600f861660108110611d02577f4e487b7100000000000000000000000000000000000000000000000000000000600052603260045260246000fd5b1a60f81b828281518110611d3f577f4e487b7100000000000000000000000000000000000000000000000000000000600052603260045260246000fd5b60200101907effffffffffffffffffffffffffffffffffffffffffffffffffffffffffffff1916908160001a905350600485901c945080611d7f90612c20565b9050611c9d565b5060008414611dca576040517f08c379a0000000000000000000000000000000000000000000000000000000008152600401611dc190612803565b60405180910390fd5b8091505092915050565b611dde8282610fcf565b15611eb157600080600084815260200190815260200160002060000160008373ffffffffffffffffffffffffffffffffffffffff1673ffffffffffffffffffffffffffffffffffffffff16815260200190815260200160002060006101000a81548160ff021916908315150217905550611e566117fe565b73ffffffffffffffffffffffffffffffffffffffff168173ffffffffffffffffffffffffffffffffffffffff16837ff6391f5c32d9c69d2a47ea670b442974b53935d1edc7fd64eb21e047a839171b60405160405180910390a45b5050565b6000611edd836000018373ffffffffffffffffffffffffffffffffffffffff1660001b611f6a565b905092915050565b6000826000018281548110611f23577f4e487b7100000000000000000000000000000000000000000000000000000000600052603260045260246000fd5b9060005260206000200154905092915050565b600081600001805490509050919050565b600080836001016000848152602001908152602001600020541415905092915050565b600080836001016000848152602001908152602001600020549050600081146120e4576000600182611f9c9190612af7565b9050600060018660000180549050611fb49190612af7565b905081811461206f576000866000018281548110611ffb577f4e487b7100000000000000000000000000000000000000000000000000000000600052603260045260246000fd5b9060005260206000200154905080876000018481548110612045577f4e487b7100000000000000000000000000000000000000000000000000000000600052603260045260246000fd5b90600052602060002001819055508387600101600083815260200190815260200160002081905550505b856000018054806120a9577f4e487b7100000000000000000000000000000000000000000000000000000000600052603160045260246000fd5b6001900381819060005260206000200160009055905585600101600086815260200190815260200160002060009055600193505050506120ea565b60009150505b92915050565b508054600082559060005260206000209081019061210e9190612111565b50565b5b8082111561212a576000816000905550600101612112565b5090565b60008135905061213d81612fd8565b92915050565b60008151905061215281612fef565b92915050565b60008135905061216781613006565b92915050565b60008135905061217c8161301d565b92915050565b60008135905061219181613034565b92915050565b6000602082840312156121a957600080fd5b60006121b78482850161212e565b91505092915050565b6000602082840312156121d257600080fd5b60006121e084828501612143565b91505092915050565b6000602082840312156121fb57600080fd5b600061220984828501612158565b91505092915050565b6000806040838503121561222557600080fd5b600061223385828601612158565b92505060206122448582860161212e565b9150509250929050565b6000806040838503121561226157600080fd5b600061226f85828601612158565b925050602061228085828601612182565b9150509250929050565b60006020828403121561229c57600080fd5b60006122aa8482850161216d565b91505092915050565b6000602082840312156122c557600080fd5b60006122d384828501612182565b91505092915050565b60006122e8838361230c565b60208301905092915050565b6000612300838361232a565b60208301905092915050565b61231581612b4b565b82525050565b61232481612b4b565b82525050565b61233381612b4b565b82525050565b6000612344826129a3565b61234e81856129de565b93506123598361297e565b8060005b8381101561238a57815161237188826122dc565b975061237c836129c4565b92505060018101905061235d565b5085935050505092915050565b60006123a2826129ae565b6123ac81856129ef565b93506123b78361298e565b8060005b838110156123ef576123cc82612d46565b6123d688826122f4565b97506123e1836129d1565b9250506001810190506123bb565b5085935050505092915050565b61240581612b5d565b82525050565b61241481612b69565b82525050565b61242381612bc9565b82525050565b6000612434826129b9565b61243e81856129fa565b935061244e818560208601612bed565b61245781612d59565b840191505092915050565b600061246d826129b9565b6124778185612a0b565b9350612487818560208601612bed565b80840191505092915050565b60006124a06020836129fa565b91506124ab82612d77565b602082019050919050565b60006124c36015836129fa565b91506124ce82612da0565b602082019050919050565b60006124e66026836129fa565b91506124f182612dc9565b604082019050919050565b6000612509601c836129fa565b915061251482612e18565b602082019050919050565b600061252c600a836129fa565b915061253782612e41565b602082019050919050565b600061254f6011836129fa565b915061255a82612e6a565b602082019050919050565b60006125726020836129fa565b915061257d82612e93565b602082019050919050565b60006125956010836129fa565b91506125a082612ebc565b602082019050919050565b60006125b86020836129fa565b91506125c382612ee5565b602082019050919050565b60006125db601783612a0b565b91506125e682612f0e565b601782019050919050565b60006125fe601183612a0b565b915061260982612f37565b601182019050919050565b6000612621602f836129fa565b915061262c82612f60565b604082019050919050565b60006126446019836129fa565b915061264f82612faf565b602082019050919050565b61266381612bbf565b82525050565b61267a61267582612bbf565b612cad565b82525050565b600061268b826125ce565b91506126978285612462565b91506126a2826125f1565b91506126ae8284612462565b91508190509392505050565b60006126c68286612669565b6020820191506126d68285612669565b6020820191506126e68284612397565b9150819050949350505050565b6000602082019050612708600083018461231b565b92915050565b6000606082019050612723600083018661231b565b612730602083018561231b565b61273d604083018461265a565b949350505050565b600060408201905061275a600083018561231b565b612767602083018461265a565b9392505050565b600060208201905081810360008301526127888184612339565b905092915050565b60006020820190506127a560008301846123fc565b92915050565b60006020820190506127c0600083018461240b565b92915050565b60006020820190506127db600083018461241a565b92915050565b600060208201905081810360008301526127fb8184612429565b905092915050565b6000602082019050818103600083015261281c81612493565b9050919050565b6000602082019050818103600083015261283c816124b6565b9050919050565b6000602082019050818103600083015261285c816124d9565b9050919050565b6000602082019050818103600083015261287c816124fc565b9050919050565b6000602082019050818103600083015261289c8161251f565b9050919050565b600060208201905081810360008301526128bc81612542565b9050919050565b600060208201905081810360008301526128dc81612565565b9050919050565b600060208201905081810360008301526128fc81612588565b9050919050565b6000602082019050818103600083015261291c816125ab565b9050919050565b6000602082019050818103600083015261293c81612614565b9050919050565b6000602082019050818103600083015261295c81612637565b9050919050565b6000602082019050612978600083018461265a565b92915050565b6000819050602082019050919050565b60008190508160005260206000209050919050565b600081519050919050565b600081549050919050565b600081519050919050565b6000602082019050919050565b6000600182019050919050565b600082825260208201905092915050565b600081905092915050565b600082825260208201905092915050565b600081905092915050565b6000612a2182612bbf565b9150612a2c83612bbf565b9250827fffffffffffffffffffffffffffffffffffffffffffffffffffffffffffffffff03821115612a6157612a60612ce8565b5b828201905092915050565b6000612a7782612bbf565b9150612a8283612bbf565b925082612a9257612a91612d17565b5b828204905092915050565b6000612aa882612bbf565b9150612ab383612bbf565b9250817fffffffffffffffffffffffffffffffffffffffffffffffffffffffffffffffff0483118215151615612aec57612aeb612ce8565b5b828202905092915050565b6000612b0282612bbf565b9150612b0d83612bbf565b925082821015612b2057612b1f612ce8565b5b828203905092915050565b600073ffffffffffffffffffffffffffffffffffffffff82169050919050565b6000612b5682612b9f565b9050919050565b60008115159050919050565b6000819050919050565b60007fffffffff0000000000000000000000000000000000000000000000000000000082169050919050565b600073ffffffffffffffffffffffffffffffffffffffff82169050919050565b6000819050919050565b6000612bd482612bdb565b9050919050565b6000612be682612b9f565b9050919050565b60005b83811015612c0b578082015181840152602081019050612bf0565b83811115612c1a576000848401525b50505050565b6000612c2b82612bbf565b91506000821415612c3f57612c3e612ce8565b5b600182039050919050565b6000612c5d612c5883612d6a565b612b2b565b9050919050565b6000612c6f82612bbf565b91507fffffffffffffffffffffffffffffffffffffffffffffffffffffffffffffffff821415612ca257612ca1612ce8565b5b600182019050919050565b6000819050919050565b6000612cc282612bbf565b9150612ccd83612bbf565b925082612cdd57612cdc612d17565b5b828206905092915050565b7f4e487b7100000000000000000000000000000000000000000000000000000000600052601160045260246000fd5b7f4e487b7100000000000000000000000000000000000000000000000000000000600052601260045260246000fd5b6000612d528254612c4a565b9050919050565b6000601f19601f8301169050919050565b60008160001c9050919050565b7f537472696e67733a20686578206c656e67746820696e73756666696369656e74600082015250565b7f6572726f7220647572696e67207472616e736665720000000000000000000000600082015250565b7f4f776e61626c653a206e6577206f776e657220697320746865207a65726f206160008201527f6464726573730000000000000000000000000000000000000000000000000000602082015250565b7f6e6565642035206d696e75746573206265747765656e20647261777300000000600082015250565b7f6e6f207469636b65747300000000000000000000000000000000000000000000600082015250565b7f746f6f206d616e79206d616e6167657273000000000000000000000000000000600082015250565b7f6d73672e73656e646572206d757374206265206f776e65722f6d616e61676572600082015250565b7f7a65726f207469636b6574436f756e7400000000000000000000000000000000600082015250565b7f4f776e61626c653a2063616c6c6572206973206e6f7420746865206f776e6572600082015250565b7f416363657373436f6e74726f6c3a206163636f756e7420000000000000000000600082015250565b7f206973206d697373696e6720726f6c6520000000000000000000000000000000600082015250565b7f416363657373436f6e74726f6c3a2063616e206f6e6c792072656e6f756e636560008201527f20726f6c657320666f722073656c660000000000000000000000000000000000602082015250565b7f6572726f7220647572696e67207472616e7366657246726f6d00000000000000600082015250565b612fe181612b4b565b8114612fec57600080fd5b50565b612ff881612b5d565b811461300357600080fd5b50565b61300f81612b69565b811461301a57600080fd5b50565b61302681612b73565b811461303157600080fd5b50565b61303d81612bbf565b811461304857600080fd5b5056fea2646970667358221220d2cb9c6028362ed62e64401caab9e11d53fec5cb7d06bfde49378332b24a4ea364736f6c63430008040033",
  "linkReferences": {},
  "deployedLinkReferences": {}
}